:100000000C948F050C94081F0C94E11E0C94B705FA
:100010000C94B7050C94B7050C94B7050C94B70570
:100020000C94B7050C94B7050C94B7050C94B70560
:100030000C94B7050C94B7050C94B7050C94B70550
:100040000C94971E0C94B7050C94551F0C942F1FFD
:100050000C94B7050C94B7050C94B7050C94B70530
:100060000C94871F0C94B70508000000BE92244929
:10007000123EABAAAA2ABECDCCCC4C3E00000080DA
:10008000BEABAAAAAA3E00000000BF000000803F4D
:100090000000000000084178D3BB4387D1133D190D
:1000A0000E3CC3BD4282AD2B3E68EC8276BED98F3A
:1000B000E1A93E4C80EFFFBE01C4FF7F3F0000007E
:1000C00000002200FF21004F4646004657440052E0
:1000D000657600430043003E0045787472756465A0
:1000E0003A200045787472756465205370656564C4
:1000F0003A20005365742054656D703A200000006A
:100100000000003E5B4F5B3E3E6B4F6B3E1C3E7CF7
:100110003E1C183C7E3C181C577D571C1C5E7F5EA5
:100120001C00183C1800FFE7C3E7FF001824180064
:10013000FFE7DBE7FF30483A060E262979292640FB
:100140007F050507407F05253F5A3CE73C5A7F3E27
:100150001C1C08081C1C3E7F14227F22145F5F00B9
:100160005F5F06097F017F006689956A6060606055
:100170006094A2FFA29408047E040810207E201040
:1001800008082A1C08081C2A08081E101010100C49
:100190001E0C1E0C30383E3830060E3E0E06000097
:1001A00000000000005F00000007000700147F143B
:1001B0007F14242A7F2A12231308646236495620AA
:1001C000500008070300001C2241000041221C00CF
:1001D0002A1C7F1C2A08083E08080080703000088E
:1001E00008080808000060600020100804023E5162
:1001F00049453E00427F40007249494946214149F4
:100200004D331814127F1027454545393C4A49495A
:100210003141211109073649494936464949291EC4
:1002200000001400000040340000000814224114B3
:1002300014141414004122140802015909063E4105
:100240005D594E7C1211127C7F494949363E41412D
:1002500041227F4141413E7F494949417F09090986
:10026000013E414151737F0808087F00417F4100F2
:100270002040413F017F081422417F404040407FA1
:10028000021C027F7F0408107F3E4141413E7F09EE
:100290000909063E4151215E7F091929462649492F
:1002A000493203017F01033F4040403F1F2040206F
:1002B0001F3F4038403F631408146303047804036D
:1002C0006159494D43007F4141410204081020001B
:1002D0004141417F0402010204404040404000038C
:1002E00007080020545478407F2844443838444458
:1002F0004428384444287F385454541800087E0950
:100300000218A4A49C787F0804047800447D40006F
:100310002040403D007F1028440000417F40007C89
:10032000047804787C080404783844444438FC1881
:1003300024241818242418FC7C0804040848545465
:10034000542404043F44243C4040207C1C20402092
:100350001C3C4030403C44281028444C9090907CF9
:100360004464544C4400083641000000770000000B
:100370004136080002010204023C2623263C1EA14D
:10038000A161123A4040207A3854545559215555AC
:10039000794122545478422155547840205455795B
:1003A000400C1E52721239555555593954545459EE
:1003B00039555454580000457C410002457D4200A7
:1003C00001457C407D1211127DF0282528F07C54D7
:1003D0005545002054547C547C0A097F49324949D0
:1003E00049323A4444443A324A4848303A41412139
:1003F0007A3A42402078009DA0A07D3D4242423D95
:100400003D4040403D3C24FF2424487E4943662B28
:100410002FFC2F2BFF0929F620C0887E09032054CA
:100420005479410000447D413048484A32384040C8
:10043000227A007A0A0A727D0D19317D2629292F28
:1004400028262929292630484D4020380808080840
:1004500008080808382F10C8ACBA2F102834FA0042
:10046000007B000008142A142222142A14085500C4
:10047000550055AA55AA55AAFF55FF55FF00000083
:10048000FF00101010FF00141414FF001010FF00E4
:10049000FF1010F010F0141414FC001414F700FFF7
:1004A0000000FF00FF1414F404FC141417101F10B4
:1004B000101F101F1414141F00101010F000000063
:1004C000001F101010101F10101010F0100000006E
:1004D000FF101010101010101010FF10000000FF7F
:1004E000140000FF00FF00001F10170000FC04F4C0
:1004F00014141710171414F404F40000FF00F71478
:10050000141414141414F700F714141417141010FE
:100510001F101F141414F4141010F010F000001F1A
:10052000101F0000001F14000000FC140000F01059
:10053000F01010FF10FF141414FF141010101F00FF
:10054000000000F010FFFFFFFFFFF0F0F0F0F0FF01
:10055000FFFF0000000000FFFF0F0F0F0F0F3844D8
:10056000443844FC4A4A4A347E02020606027E02AD
:100570007E0263554941633844443C04407E201E5A
:100580002006027E020299A5E7A5991C2A492A1C89
:100590004C7201724C304A4D4D303048784830BC76
:1005A000625A463D3E494949007E0101017E2A2AA0
:1005B0002A2A2A44445F444440514A444040444A21
:1005C00051400000FF0103E080FF000008086B6B52
:1005D000083612362436060F090F060000181800D8
:1005E00000001010003040FF0101001F01011E003B
:1005F000191D1712003C3C3C3C00000000000001AB
:1006000003070F1F3F7F0080C0E0F0F8FCFEDB40D7
:10061000A4A62EAF2000A1C8D300408DAED580A8DF
:10062000000060000000000000000000000000006A
:1006300000E00000000000000000000000000001D9
:10064000E00000000000000000000000000001F0D9
:100650000000000000000000000000000003F000A7
:1006600000000000000000000000000007F0000093
:10067000000000000000000000000007F80000007B
:10068000000000000000000000000FF80000000360
:10069000C0007E000001E0007F0FF800000003C0F2
:1006A00000FE000001E000FFEFF800000003C000C2
:1006B000FE000001E000FFFFF800000003C000F0B2
:1006C0000000000F007FFE7FC0000003C000F000AC
:1006D00000000F003FFE7FF83FF1FBCFFCFEF3BCB4
:1006E0003DEFE01FFE7FFF7FFBFFDFFEFEFFBC3D17
:1006F000EFE01FC6FFFF7FFBFFDFFEFEFFBC3DEF0D
:10070000E00FE3C7FE787BC3DE1EF0FFBC3DEF00C9
:1007100007FF87FC787BC3DE1EF0F83C3DEF00014D
:10072000FFFFF0007BC3C01EF0F03C3DEF0001F383
:100730007FE03FFBC3CFFEF0F03C3DEF0003E33F23
:10074000807FFBC3DFFEF0F03C3DEF0007E73C009D
:10075000787BC3DE1EF0F03C3DEF0007FFBE007863
:100760007BC3DE1EF0F03C3DEF0007FFFE00787B10
:10077000C3DE1EF0F03C3DEF000FFFFE007FFBFFED
:10078000DFFEF0F03FFDEFE00FFFFF007FFBFFDF3C
:10079000FEF0F03FFDEFE00FF9FF003E79F9CF9E4C
:1007A000F0F01F3DE7E01FF1FF0000000000000037
:1007B00000000000001F80FF007FFFFFFFFFFFFF22
:1007C000FFFFFFE01C007F007FFFFFFFFEB46D888E
:1007D0008D18E000001F007FFFFFFFFE95AD7DB587
:1007E00077E000000F007FFFFFFFFEA5AD9D8D1994
:1007F000E0000006007FFFFFFFFEB5ADEDB57EE037
:100800000000000000018000000000000000000067
:10081000038000000000000000000007C00000008E
:1008200000000000000007C0000000000000000001
:10083000000FC00000000000000000001FE00000EA
:10084000000000000000001FE000000000000000A9
:1008500000003FE00000000000000000003FF0004A
:1008600000000000000000007FF000000000000019
:10087000001FF87FF0000000000000003FFE7FF046
:10088000000000000000003FFF7FF00000000000BB
:1008900000001FFFFBE0000000000000000FFFF958
:1008A000FFC00000000000000FFFF9FFF80000008B
:1008B00000000007FFF1FFFF00000000000003FC44
:1008C00073FFFF80000000000001FE3FFFFF80007B
:1008D0000000000000FF1E0FFF00000000000000ED
:1008E0007FFE1FFC000000000000003FFFFFF8003B
:1008F0000000000000000FDFFFE00000000000002B
:10090000001F19FFC0000000000000003F3CFF0076
:10091000000000000000007E7CF8000000000000E5
:1009200000007FFE7C0000000000000000FFFFFCD4
:100930000000000000000000FFFFFE0000000000BB
:10094000000000FFFFFE0000000000000001FFEFBC
:10095000FE0000000000000001FFCFFE00000000CC
:1009600000000003FF07FE0000000000000003FC81
:1009700007FE0000000000000003F003FE0000007E
:1009800000000000018000FE0000000000000000E8
:1009900000007E000000000000000000003E00009B
:1009A00000000000000000000C0000000000000734
:1009B0008000FC000003C0000000078001FC000074
:1009C00003C0000000078001FC000003C00000001D
:1009D000078001E00000001E000000078001E00029
:1009E00000001E007FE3F79FF9FDE7787BDFC0FF83
:1009F000F7FFBFFDFDFF787BDFC0FFF7FFBFFDFD09
:100A0000FF787BDFC0F0F787BC3DE1FF787BDE003D
:100A1000F0F787BC3DE1F0787BDE0000F787803D92
:100A2000E1E0787BDE007FF7879FFDE1E0787BDE09
:100A300000FFF787BFFDE1E0787BDE00F0F787BCC1
:100A40003DE1E0787BDE00F0F787BC3DE1E0787BBC
:100A5000DE00F0F787BC3DE1E0787BDE00FFF7FFCA
:100A6000BFFDE1E07FFBDFC0FFF7FFBFFDE1E07FFF
:100A7000FBDFC07CF3F39F3DE1E03E7BCFC0000095
:100A8000000000000000000000FFFFFFFFFFFFFF6D
:100A9000FFFFFFC0FFFFFFFFFD68DB111A31C0FF42
:100AA000FFFFFFFD2B5AFB6AEFC0FFFFFFFFFD4B6F
:100AB0005B3B1A33C0FFFFFFFFFD6B5BDB6AFDC0D2
:100AC00000000000240027002A000000000025008C
:100AD00028002B00000000080002010000030407AA
:100AE0000000000000000000010204081020408007
:100AF0000102040810200102040810200000000078
:100B0000230026002900040404040404040402024F
:100B100002020202030303030303A620A1291124F6
:100B20001FBECFEFD8E0DEBFCDBF11E0A0E0B1E047
:100B3000EAEFFBE502C005900D92A63EB107D9F79A
:100B400024E0A6EEB1E001C01D92A234B207E1F7A5
:100B500015E0CEE8D5E004C02197FE010E94F129FE
:100B6000CD38D107C9F70E94AE230C94F02D0C9418
:100B700000008F929F92AF92BF92CF92DF92EF923E
:100B8000FF920F931F93CF93DF938B01D82FC92F21
:100B90009B01482F592F609112047091130480918A
:100BA0001404909115040E94642A882309F43EC01D
:100BB0008090160490901704A0901804B090190427
:100BC00075016401F7FAF094F7F8F094A701960123
:100BD000B8018D2F9C2F0E94642A87FD0EC0A501AD
:100BE0009401B8018D2F9C2F0E94C32B75016401C5
:100BF00018161CF06801ED2EFC2E20E030E0A90153
:100C0000C701B6010E94642A81111DC01092FD0324
:100C10001092FE031092FF0310920004C09212047F
:100C2000D0921304E0921404F0921504DF91CF9156
:100C30001F910F91FF90EF90DF90CF90BF90AF90FA
:100C40009F908F900895A701960160E074E284E779
:100C500099E40E94692A9F770E94E22A6093FD032B
:100C60007093FE038093FF0390930004C1E020E0A3
:100C700030E0A901C701B6010E94C32B18160CF081
:100C8000C0E0C093FC03CACF0895FC01538D448D8E
:100C9000252F30E0842F90E0821B930B541710F027
:100CA000CF96089501970895FC01918D828D981734
:100CB00061F0A28DAE0FBF2FB11D5D968C91928D0C
:100CC0009F5F9F73928F90E008958FEF9FEF08953D
:100CD000FC01918D828D981731F0828DE80FF11D06
:100CE000858D90E008958FEF9FEF0895FC01918D21
:100CF000228D892F90E0805C9F4F821B91098F731A
:100D000099270895FC01A48DA80FB92FB11DA35AEE
:100D1000BF4F2C91848D90E001968F739927848F1B
:100D2000A689B7892C93A089B1898C91837080643E
:100D30008C93938D848D981306C00288F389E02DDF
:100D400080818F7D80830895EF92FF920F931F9390
:100D5000CF93DF93EC0181E0888F9B8D8C8D98136E
:100D60001AC0E889F989808185FF15C09FB7F8947A
:100D7000EE89FF896083E889F989808183708064C6
:100D800080839FBF81E090E0DF91CF911F910F9111
:100D9000FF90EF900895F62E0B8D10E00F5F1F4F20
:100DA0000F731127E02E8C8D8E110CC00FB607FC2F
:100DB000FACFE889F989808185FFF5CFCE010E94BD
:100DC0008206F1CFEB8DEC0FFD2FF11DE35AFF4FA3
:100DD000F0829FB7F8940B8FEA89FB89808180624B
:100DE000CFCFCF93DF93EC01888D8823B9F0AA8908
:100DF000BB89E889F9898C9185FD03C0808186FDD6
:100E00000DC00FB607FCF7CF8C9185FFF2CF808124
:100E100085FFEDCFCE010E948206E9CFDF91CF9111
:100E2000089585EB92E00E94760621E0892B09F473
:100E300020E0822F089580E090E0892B29F00E9425
:100E4000110781110C9400000895833081F028F47B
:100E5000813099F08230A9F008958730A9F0883068
:100E6000C9F08430B1F4809180008F7D03C08091FF
:100E700080008F7780938000089584B58F7784BD3C
:100E8000089584B58F7DFBCF8091B0008F778093DC
:100E9000B00008958091B0008F7DF9CFCF93DF939C
:100EA000E3EEFAE08491E7EFFAE0D491E5E1FBE0CC
:100EB000C491CC23A1F081110E942507EC2FF0E012
:100EC000EE0FFF1FE450F54FA591B491EC91ED2387
:100ED00081E090E009F480E0DF91CF91089580E017
:100EE00090E0FACF1F93CF93DF93282F30E0F901E2
:100EF000EC52F54F8491F901E851F54FD491F90185
:100F0000EA5FF44FC491CC23A9F0162F81110E94FF
:100F10002507EC2FF0E0EE0FFF1FE653F54FA591EC
:100F2000B4918FB7F894EC91111108C0D095DE23DD
:100F3000DC938FBFDF91CF911F910895DE2BF8CF07
:100F4000CF93DF9390E0FC01E851F54F24918A5F45
:100F5000944FFC0184918823D1F090E0880F991F71
:100F6000FC01E054F54FA591B491FC01E653F54F17
:100F7000C591D491623071F49FB7F8943C91822F5F
:100F8000809583238C93E8812E2B28839FBFDF914C
:100F9000CF9108958FB7F894EC912E2B2C938FBF9F
:100FA000F6CFCF93DF93EC0161E083E00E94A007CE
:100FB000209731F460E083E0DF91CF910C947207C9
:100FC000CF3FD10511F461E0F6CFE7EDFAE0E4910F
:100FD000E33029F140F4E130B1F0E230D9F0C0382B
:100FE000D1058CF7E7CFE73021F1E83051F1E4305B
:100FF000B1F780918000806280938000D0938B0055
:10100000C0938A0004C084B5806884BDC7BDDF91E9
:10101000CF91089584B5806284BDC8BDF8CF80911A
:101020008000806880938000D0938900C0938800FE
:10103000EECF8091B00080688093B000C093B30081
:10104000E6CF8091B00080628093B000C093B4007E
:10105000DECF3FB7F8948091AD029091AE02A0919F
:10106000AF02B091B00226B5A89B05C02F3F19F082
:101070000196A11DB11D3FBFBA2FA92F982F882718
:10108000BC01CD01620F711D811D911D42E0660FF3
:10109000771F881F991F4A95D1F708958F929F92C5
:1010A000AF92BF92CF92DF92EF92FF924B015C0121
:1010B0000E9429086B017C010E9429086C197D0996
:1010C0008E099F09683E734081059105A8F321E0D0
:1010D000821A9108A108B10888EEC80E83E0D81ED4
:1010E000E11CF11C81149104A104B10429F7FF90C3
:1010F000EF90DF90CF90BF90AF909F908F9008952A
:101100002FB7F8946091A9027091AA028091AB0266
:101110009091AC022FBF08953F924F925F926F92D1
:101120007F928F929F92AF92BF92CF92DF92EF9277
:10113000FF920F931F93CF93DF93CDB7DEB72E9718
:101140000FB6F894DEBF0FBECDBF0E9480086D833E
:101150007E838F8398878091800390918103A091F3
:101160008203B09183034D815E816F817885481B36
:10117000590B6A0B7B0B80918C0390918D03A0918E
:101180008E03B0918F03481759076A077B0708F44D
:101190003CC1E0917A03F0917B0380819181A2812F
:1011A000B38189839A83AB83BC83E0917E03F09102
:1011B0007F039C01AD0160817181828193810E94D6
:1011C000F7294B015C0120918803309189034091FC
:1011D0008A0350918B0369817A818B819C810E9463
:1011E000F7296B017C0120916E0330916F034091D0
:1011F000700350917103C501B4010E94182C209115
:1012000084033091850340918603509187030E94A7
:10121000F8292B013C01409284035092850360928F
:101220008603709287033090990331101AC0209181
:101230006A0330916B0340916C0350916D03C701B9
:10124000B6010E94182C9B01AC01C301B2010E949F
:10125000F7296093840370938503809386039093AA
:1012600087034090840350908503609086037090BC
:10127000870310919403909195039E87A091960304
:10128000AD8700919703212F392F4A2F502FC3018B
:10129000B2010E94C32B18160CF09AC0812F9E85B4
:1012A000AD85B02F8093840390938503A09386032C
:1012B000B0938703332009F4A4C020916A033091CE
:1012C0006B0340916C0350916D03C501B4010E9402
:1012D000182C4B015C0120917203309173034091F3
:1012E000740350917503C701B6010E94182C9B012D
:1012F000AC01609184037091850380918603909185
:1013000087030E94F729A50194010E94F8296B0127
:101310007C019B01AC01612F7E858D85902F0E9401
:10132000642A87FD18C010919003909191039E87C5
:10133000A0919203AD8700919303212F392F4A2F5B
:10134000502FB601C7010E94642A87FD04C01C2DDE
:10135000DE86ED860F2DE0917C03F0917D03812FD9
:101360009E85AD85B02F80839183A283B3838981CD
:101370009A81AB81BC818093880390938903A09369
:101380008A03B0938B038D819E81AF81B885809352
:10139000800390938103A0938203B093830381E041
:1013A0002E960FB6F894DEBF0FBECDBFDF91CF9162
:1013B0001F910F91FF90EF90DF90CF90BF90AF9073
:1013C0009F908F907F906F905F904F903F90089587
:1013D0008091900390919103A0919203B091930317
:1013E00089879A87AB87BC879C01AD01C301B20195
:1013F0000E94642A87FF5ECF89859A85AB85BC856C
:1014000051CF812C912C540166CF80E0C9CF089533
:1014100008950895AF92BF92CF92DF92EF92FF921C
:101420000F931F93CF93DF936C017B018B01040F0C
:10143000151FEB015E01AE18BF08C017D10759F0A8
:101440006991D601ED91FC910190F081E02DC601EA
:101450000995892B79F7C501DF91CF911F910F91E4
:10146000FF90EF90DF90CF90BF90AF900895EF92F4
:10147000FF920F931F93CF93DF93EC01EC80FD80DD
:101480006E157F050CF070C057FF04C0240F351F88
:1014900050E040E08E819F81FA01E20FF31F8E172A
:1014A0009F071CF49C01241B350B121613060CF02D
:1014B0005BC0922F842F8695869586958E9DD00150
:1014C0008F9DB00D11246A0F7B1FAF8DB8A1A60FA1
:1014D000B71F477049F188E0841B482F682F70E0E0
:1014E000FB01EA5FF94FE491281708F063C0621B23
:1014F00071092FEF30E002C0359527956A95E2F724
:10150000E2230130110539F0B0F10230110561F527
:101510008C91E82702C08C91E82BEC93941720F172
:101520002C813D81A20FB31FE92FE41BE83078F036
:101530000230110521F58E2F9C9190959C932C8162
:101540003D81A20FB31F88508830B0F7E770EE23BB
:1015500059F0F0E0E250FA4FE49101301105F9F052
:1015600010F10230110519F1DF91CF911F910F9108
:10157000FF90EF900895E0958C91E823CECF81E025
:101580000115110509F480E081959E2F8C932C8123
:101590003D81A20FB31F98509830C0F7D7CF8C91E0
:1015A000E82BEC93E1CFE0958C91E823FACF8C9176
:1015B000E827F7CF0130110509F4ADCFE0F2023092
:1015C000110509F4A5CFAE0DBF1DAECF0F931F932C
:1015D000CF93DF9377FF04C0260F371F70E060E0E2
:1015E000DC011496CD91DC91FB01E20FF31FCE17C5
:1015F000DF071CF49E01261B370B121613064CF551
:10160000FA0157FD3796A3E0F595E795AA95E1F71E
:10161000EC9FD001ED9FB00DFC9FB00D11246A0F1F
:101620007B1FDC015F96ED91FC91E60FF71F477081
:10163000552781E090E001C0880F4A95EAF7482FCE
:101640000130110559F0A8F02E0F3F1F023011058F
:10165000E1F0DF91CF911F910F9108952E0F3F1F61
:10166000E217F307B1F38191DF011197842B8C937B
:10167000F7CF80952E0F3F1FE217F30751F391919B
:10168000DF01119798239C93F7CFE217F30709F333
:101690008191DF01119784278C93F7CF0F931F93CC
:1016A000FA01DC0156964C9156974230E9F04330EE
:1016B000A1F1413061F514964D915C91DA01AE1BB8
:1016C000BF0BFD01E21BF30B77FD0BC0DC0116968F
:1016D0004D915C916417750724F4AB01BF010E9422
:1016E000E60A1F910F91089514964D915C91DA01CD
:1016F000A61BB70BBD0161507109DC0116964D9117
:101700005C91DA01AE1BBF0BFD01E21BF30B77FD11
:10171000E8CFAF010E94370AE4CF16964D915C9155
:10172000DA01A61BB70BBD0161507109CDCF0F9334
:101730001F93FA01DC0156964C9156974230A9F05E
:10174000433091F1413019F514964D915C91DA01D5
:10175000AE1BBF0BFD013197F7FD04C0AB01BF010C
:101760000E94370A1F910F91089514964D915C9134
:10177000DA01A61BB70BBD01DC0116964D915C91F9
:10178000DA01AE1BBF0BFD013197621B730BF7FD36
:10179000E9CFDC0116964D915C91E417F50714F73B
:1017A000AF010E94E60ADECF16964D915C91DA01F8
:1017B000A61BB70BBD01621B730BCECFFC0177FDDF
:1017C00064C080859185681779070CF05EC057FD6D
:1017D0005CC082859385481759070CF056C08689EE
:1017E0008230B1F0833029F1813041F484819581D8
:1017F000841B950BAB01BC0161507109213031058F
:1018000009F108F443C02230310509F463C008959A
:1018100084819581DC01A61BB70BBD016150710964
:1018200086819781DC01A41BB50BAD0141505109A4
:10183000E5CF86819781861B970BBA01AC01415099
:101840005109DCCFCA0157FD0796A3E0959587950E
:10185000AA95E1F7A481B5818A9F90018B9F300DF5
:101860009A9F300D1124620F731F078CF0A1E02D99
:10187000E60FF71F4770552721E030E001C0220F27
:101880004A95EAF78081822B80830895CA0157FD2B
:10189000079633E0959587953A95E1F7A481B58150
:1018A0008A9F90018B9F300D9A9F300D1124620FFB
:1018B000731F078CF0A1E02DE60FF71F4770552727
:1018C00081E090E001C0880F4A95EAF78095908109
:1018D0008923DACFCA0157FD079623E095958795AE
:1018E0002A95E1F7A481B5818A9F90018B9F300DE5
:1018F0009A9F300D1124620F731F078CF0A1E02D09
:10190000E60FF71F4770552721E030E001C0220F96
:101910004A95EAF780818227B7CF08958EBD0000EF
:101920000DB407FEFDCF8EB508958CBD9DBD089505
:101930000895FC016370668B8481958126813781CF
:10194000613039F0633029F09187808733872287AF
:101950000895318720879387828708952F923F9239
:101960004F925F926F927F928F929F92AF92BF92AF
:10197000CF92DF92EF92FF920F931F93CF93DF935B
:10198000CDB7DEB76A970FB6F894DEBF0FBECDBFF6
:101990009A8F898F7A8369834A01D22E18870F83A1
:1019A0003701BC2CDC0159962D913C915A97211599
:1019B000310509F015C118968D919C9119976817FA
:1019C00079070CF0D7C11A968D919C914817590749
:1019D0000CF0D0C14C2C512CB6E0CB9E600D711D8B
:1019E00011247C876B87161617060CF0C3C1EA2DED
:1019F000F0E0FA87E98793E0EE0FFF1F9A95E1F791
:101A0000F88BEF87CF01840F951F181619060CF07D
:101A1000B1C1A98DBA8D58968C91811104C0BFEACD
:101A2000BD1508F4D394A98DBA8DED91FC91119751
:101A30000284F385E02DCD010995B5E0DB9EC00160
:101A40001124E981FA81FC83EB83312C212C9C0148
:101A500022503F4F388F2F8B4A2D50E05E8B4D8B9D
:101A6000EF89F88DE20DF31D44919E828D82D12C79
:101A7000C12C69817A81620D731D7A8B698B842FE9
:101A800090E09C8B8B8BE98DFA8DA081B18140FF1A
:101A900082C0F1E0BF126FC0AF126DC01C96ED9115
:101AA000FC912F813885A4014C0D5D1D69897A89CF
:101AB000898D9A8D0995EB89FC89F595E7954E2FCF
:101AC0005FEFC51AD50A6D817E818D899E89680F69
:101AD000791F7E836D8398E0C916D10481F6AFEF3C
:101AE0002A1A3A0AEB81FC81E40DF51DFC83EB8395
:101AF000F5E02F16310409F0B3CF2F813885261574
:101B00003705B9F0A98DBA8DED91FC91B1E0BB120A
:101B100057C0AB1255C069817A816B5F7F4F0088D7
:101B2000F189E02D830128E030E0A401898D9A8DB0
:101B30000995A98DBA8DED91FC9111970688F789C9
:101B4000E02DCD016A960FB6F894DEBF0FBECDBF73
:101B5000DF91CF911F910F91FF90EF90DF90CF9089
:101B6000BF90AF909F908F907F906F905F904F90BD
:101B70003F902F9009941E96ED91FC91EF80F88490
:101B800009851A8592014D815E816B817C81898DE9
:101B90009A8D099590CF2F8138852615370509F440
:101BA0008ACF31E0B31207C0A31205C01C96ED9195
:101BB000FC91930178CF1E96ED91FC917301E0CFDB
:101BC0006B857C85641975090684F785E02D7301A2
:101BD0000F8518899201A401898D9A8D0995A9CF45
:101BE000F90134969491329745915491D91AB7E0FE
:101BF000DB9E400D511D1124F901259134913C8B40
:101C00002B8BFA0125903490FA013296749031961C
:101C10003491398B329664903196449041E04C1562
:101C200018F04A1508F07FC0662D062C000C770BC3
:101C30007C836B83842D042C000C990B9E838D83F5
:101C4000A98DBA8DED91FC9111970284F385E02D59
:101C5000CD010995512CD12CC12CEA2DF0E0FA8749
:101C6000E9872B2D30E03C872B87A401440D511DC3
:101C700047FC5A95588F4F8B69817A81660D711D8B
:101C800067FC7A957E876D877989C71608F051CFF2
:101C90002C2D30E04D815E81420F531FA985BA85FE
:101CA0004A9FC0014B9F900D5A9F900D1124FC013B
:101CB000E80DF91DF88BEF87852D612C4F89588D24
:101CC000420F531F5E8B4D8B671408F050C04424A5
:101CD0004394480E877041F4C1010196EB89FC8959
:101CE000E20DF31DD4901C01D7FE19C0A98DBA8D49
:101CF000ED91FC91662D70E0B1E0BB1219C0AB1202
:101D000017C02D853E85620F731F0484F585E02D75
:101D10002F8138854D895E89898D9A8D0995DD0CD5
:101D20006394842DD1CF1E821D821C821B8288CF9A
:101D30004B815C81640F751FAB85BC856A9FC001B8
:101D40006B9F900D7A9F900D112469817A81680FA5
:101D5000791F0684F785E02DEF80F88409851A85C0
:101D60009D014F855889898D9A8D0995D8CF570C3B
:101D7000C3948ACF6A960FB6F894DEBF0FBECDBF6C
:101D8000DF91CF911F910F91FF90EF90DF90CF9057
:101D9000BF90AF909F908F907F906F905F904F908B
:101DA0003F902F9008958F929F92AF92CF92EF9293
:101DB000FF920F931F93CF93DF93EC01262F898D12
:101DC0009A8D009709F051C06A30D1F41D861C86A7
:101DD0008D8948E0849F900111248E859F85820F14
:101DE000931F9F878E8781E090E0DF91CF911F91B5
:101DF0000F91FF90EF90CF90AF909F908F900895AC
:101E00006D3089F3CC88AD888F898823C1F08C85AB
:101E10009D8536E0C39E800D911D1124488559850E
:101E20004817590764F44E855F851D861C8638E087
:101E3000A39EC0011124840F951F9F878E87EA8877
:101E4000FB88088919894E855F856C857D85CE0163
:101E50000E94AE0C2C898C859D8546E0249F800DC8
:101E6000911D11249D878C87BECF6A3069F41D8631
:101E70001C86FC013896E4912D898E859F85E29F12
:101E8000800D911D1124ADCF6D3009F4ACCFFC0154
:101E900034963491631708F4A6CF3296E491E6178E
:101EA00008F4A1CFFC01329685909490462F431BF5
:101EB000342F47E0349F800C911C1124F40132969A
:101EC00034913196E4913323A9F1EE2399F1CC8832
:101ED000F4013596E491AD884F89442301F10E2E2B
:101EE000000CFF0BE30FF11DCE9EA001CF9E500D05
:101EF00011246C857D85460F571F68857985641789
:101F000075076CF44E855F851D861C86FC0138962E
:101F1000E491AE9E400D511D11245F874E87EA88E3
:101F2000FB88088919894E855F856C857D85CE0182
:101F30000E94AE0CF4013496E4912C898C859D8529
:101F4000E29F800D911D11248DCF0F931F93CF938E
:101F5000DF938C01D0E0C0E0F801EC0FFD1F64912D
:101F6000662341F08AEB93E00E94D30E892B11F097
:101F70002196F2CFCE01DF91CF911F910F9108955D
:101F80006F927F928F929F92AF92BF92CF92DF9289
:101F9000EF92FF920F931F93CF93DF93EC016B01AE
:101FA0005A0139014801E881F9810284F385E02D65
:101FB0000995E881F9810288F389E02D8701930171
:101FC000A501B601CE010995A501480D591D415045
:101FD0005109E881F9810288F389E02D9301B60166
:101FE000CE010995E881F9810088F189E02D9401FD
:101FF000A501B601CE010995C60CD71CB6016150EA
:102000007109E881F9810088F189E02D9401A50129
:10201000CE010995E881F9810688F789E02DCE0186
:10202000DF91CF911F910F91FF90EF90DF90CF90B4
:10203000BF90AF909F908F907F906F9009946F9218
:102040007F928F929F92AF92BF92CF92DF92EF9248
:10205000FF920F931F93CF93DF935C01EB016A0113
:10206000490138018701DC01ED91FC91621773078A
:1020700019F5641675062CF0962D872D3A01C92E98
:10208000D82E9601261937092F5F3F4F048CF58D06
:10209000E02DA301BE01C5010995DF91CF911F91EC
:1020A0000F91FF90EF90DF90CF90BF90AF909F90F7
:1020B0008F907F906F9008954615570591F42617DD
:1020C000370724F0892D4B01C22FD82F9E012819E4
:1020D00039092F5F3F4F068CF78DE02DA601B40123
:1020E000DACF0284F385E02D0995D501ED91FC91BD
:1020F0000488F589E02D83019401A601BE01C50184
:102100000995D501ED91FC910688F789E02DC5016F
:10211000DF91CF911F910F91FF90EF90DF90CF90C3
:10212000BF90AF909F908F907F906F900994EF92A7
:10213000FF920F931F93DC011A960D911C911B9730
:1021400018962D913C911997ED91FC9100A0F1A169
:10215000E02D7B0150E040E070E060E009951F91C8
:102160000F91FF90EF9008954F925F926F927F9240
:102170008F929F92AF92BF92CF92DF92EF92FF9297
:102180000F931F93CF93DF936C012B015A013901F9
:102190004801DC01ED91FC910284F385E02D099565
:1021A000E201640C751CD601ED91FC91C615D705B2
:1021B0005CF40088F189E02D87019401A501BE013E
:1021C000C60109952196EFCF0688F789E02DC60153
:1021D000DF91CF911F910F91FF90EF90DF90CF9003
:1021E000BF90AF909F908F907F906F905F904F9037
:1021F00009948F929F92AF92BF92CF92DF92EF920B
:10220000FF920F931F93CF93DF93EC015B014A0181
:102210006901E881F9810284F385E02D0995950132
:102220002C0D3D1D21503109E881F9810488F58983
:10223000E02D78018401A401B501CE010995E88162
:10224000F9810688F789E02DCE01DF91CF911F91AA
:102250000F91FF90EF90DF90CF90BF90AF909F9045
:102260008F9009948F929F92AF92BF92CF92DF92FC
:10227000EF92FF920F931F93CF93DF93EC015B01DB
:102280004A0169017801E881F9810284F385E02D32
:102290000995C80CD91C860101501109E881F98102
:1022A0000488F589E02D9501A401B501CE010995B9
:1022B000E881F9810688F789E02DCE01DF91CF9181
:1022C0001F910F91FF90EF90DF90CF90BF90AF9054
:1022D0009F908F900994EF92FF920F931F93DC01D0
:1022E000ED91FC9100A0F1A1E02D09951F910F91B6
:1022F000FF90EF9008950F931F93DC01ED91FC91F7
:10230000068CF78DE02D09951F910F9108950F937D
:102310001F93DC01ED91FC91048CF58DE02D099566
:102320001F910F910895DC01ED91FC910084F185DE
:10233000E02D09943F924F925F926F927F928F921D
:102340009F92AF92BF92CF92DF92EF92FF920F9344
:102350001F93CF93DF935C017B014A01690139012F
:1023600087E0680E711C93E0759467949A95E1F785
:102370002B01400E511E10E000E0312CD0E0C0E0F7
:10238000CE0187709927330C892B59F4FE0183E025
:10239000F595E7958A95E1F7E00FF11FE80DF91D36
:1023A000349037FE0AC021E030E0A701B5016C0F80
:1023B0007D1F8AEB93E00E9493112196CC16DD06D7
:1023C000F9F68FEFE81AF80A060D171DE414F50464
:1023D000A9F6DF91CF911F910F91FF90EF90DF90C1
:1023E000CF90BF90AF909F908F907F906F905F90B5
:1023F0004F903F9008952F923F924F925F926F922D
:102400007F928F929F92AF92BF92CF92DF92EF9284
:10241000FF920F931F93CF93DF9300D000D000D093
:10242000CDB7DEB73C016A013E832D83FC82EB828F
:102430005801A41AB50AB7FE03C0B194A194B1081B
:102440008D809E80861A970A97FE03C0919481948E
:1024500091088A149B045CF0902F812F0D811E81BE
:102460009D838E839C2D8D2D6B01692F782F0C15EC
:102470001D055CF09D818E817E836D83692F782F91
:10248000902F812F8601C92ED82E1601201A310ACD
:102490002B012D813E81421A530A57FE03C05194ED
:1024A00041945108710137FE03C03FEFE31AF30A6C
:1024B000F594E7948D819E81861797075CF5A1E0DE
:1024C000B0E0BA83A983C016D1064CF1D301ED91D7
:1024D000FC910484F585E02D2B813C81A8016D8160
:1024E0007E818A149B041CF04D815E81B801C3017A
:1024F0000995E418F508F7FE0AC02D813E8189810F
:102500009A81280F391F3E832D83E20CF31C0F5F45
:102510001F4FD9CF2FEF3FEF3A832983D4CF269691
:102520000FB6F894DEBF0FBECDBFDF91CF911F91E4
:102530000F91FF90EF90DF90CF90BF90AF909F9062
:102540008F907F906F905F904F903F902F90089565
:10255000089520914C02260F3327331F2132310575
:10256000ECF420917002FC0190E080E0243069F0EE
:1025700082E00895A0914C022191AC01445D5D4F31
:10258000A40FB52FB11D2C930196861798F3809157
:102590004C02680F60934C0280E0089581E008953A
:1025A0001092700281E0809372021092710261E0D9
:1025B00082E10E94720761E083E10E947207E9EB09
:1025C000F0E080818E7F808380818D7F808388E4AE
:1025D0008093B80085E48093BC000895CF93DF9387
:1025E00091E090932B028823B9F0C091B800D0916C
:1025F000BA008091BC008A7B8093BC0060E082E1DD
:102600000E94720760E083E10E9472070E94D0126C
:10261000D093BA00C093B800DF91CF910895E091B4
:102620009C0280919B02E81730F4F0E0EA5FFD4FD6
:10263000808190E008958FEF9FEF089590919C0224
:1026400080919B022FEF3FEF981748F4E92FF0E0BD
:10265000EA5FFD4F208130E09F5F90939C02C901AB
:10266000089580919B0290919C02891B990B08957B
:10267000CF92DF92EF92FF920F931F93CF93DF934E
:102680007C01CB018A012091B402222389F0EB0165
:102690006B01C40ED51ECC15DD0569F06991D7011B
:1026A000ED91FC910190F081E02DC7010995F3CFE8
:1026B000642F0E94A912C801DF91CF911F910F9141
:1026C000FF90EF90DF90CF900895CF93DF931F920C
:1026D000CDB7DEB769832091B4022223F9F02091AF
:1026E000B102203258F021E030E0FC013383228334
:1026F00090E080E00F90DF91CF9108958091B20239
:10270000E82FF0E0EA51FE4F998190838F5F80932C
:10271000B2028093B10281E090E0ECCF61E0CE01A3
:1027200001960E94A912F7CFCF92DF92EF92FF920B
:102730000F931F93CF93DF93D091B10281E0D132F9
:1027400008F09CC0C091B3020E9429086B017C0173
:102750008091700281116CC082E08093700281E0F0
:10276000809372028FEF80936F0210929402D09345
:102770009302A6EEB1E0E3E7F2E080E0D8138DC06B
:102780001092950280919502CC0FC82BC0939502B0
:1027900080917102813009F084C0109271020E9410
:1027A00029086B017C01809195028093BB00809188
:1027B000270290912802A0912902B0912A02892B28
:1027C0008A2B8B2BA1F00E942908009127021091DF
:1027D00028022091290230912A026C197D098E0964
:1027E0009F09061717072807390708F442C0809188
:1027F000BC0083FDD8CF85EC8093BC000E942908E3
:102800006B017C0180917002823009F44CC0809190
:102810006F028F3F09F469C080916F02803209F422
:1028200066C080916F02803309F463C084E026C0E3
:102830008091270290912802A0912902B0912A024A
:10284000892B8A2B8B2B09F483CF0E9429080091B6
:102850002702109128022091290230912A026C1936
:102860007D098E099F09061717072807390708F001
:102870006FCF809126020E94EE1285E01092B20284
:102880001092B1021092B402DF91CF911F910F917B
:10289000FF90EF90DF90CF9008959D9191938F5F7F
:1028A0006DCF85EEA9CF8091270290912802A0914B
:1028B0002902B0912A02892B8A2B8B2B09F4A2CFF3
:1028C0000E942908009127021091280220912902D4
:1028D00030912A026C197D098E099F090617170786
:1028E0002807390708F08ECFC4CF80E0C7CF82E039
:1028F000C5CF83E0C3CFEF92FF920F931F93CF9387
:10290000DF937C01C62F8091D7039091D803009765
:1029100009F459C02091DB0331E03093B4022093D5
:10292000B3021092B2021092B102DC01ED91FC915F
:102930000190F081E02D60E009958701EE24E39499
:10294000F12CD1E0C1508091D7039091D803CF3FB3
:1029500091F1B0E2EB16F104D8F00E94941380914B
:10296000D7039091D8032091DB03D093B402209336
:10297000B3021092B2021092B102DC01ED91FC910F
:102980000190F081E02D60E00995EE24E394F12CB4
:102990008091D7039091D803F8016491DC01ED9107
:1029A000FC910190F081E02D0995BFEFEB1AFB0A35
:1029B0000F5F1F4FC7CFDF91CF911F910F91FF90F6
:1029C000EF900C949413E091E703F091E803908169
:1029D0008091ED038095892380838701C15008F49D
:1029E00038C0F80184912091D5033091D603232B70
:1029F00029F00E948E0C0F5F1F4FF0CF28E030E0CF
:102A000040E8E091E303F091E4039091EB03582F49
:102A10005423D9F05081952B9083E091E503F091F8
:102A2000E60390815091EC03952B9083E091E503B0
:102A3000F091E60350819091EC039095952390835B
:102A4000469521503109E9F6D6CF508190959523CE
:102A5000E3CFDF91CF911F910F91FF90EF900895F9
:102A60001F93CF93DF93EC018D8D9E8D009721F105
:102A7000162F29A131E03093B4022093B3021092B3
:102A8000B2021092B102DC01ED91FC910190F08153
:102A9000E02D60E009958D8D9E8DDC01ED91FC911E
:102AA0000190F081E02D612F09958D8D9E8DDF9134
:102AB000CF911F910C949413ADA5BEA59C918BA9A9
:102AC000809589238C938B8D9C8D892B31F0862F5B
:102AD000DF91CF911F910C948E0C28E030E080E8BC
:102AE000A9A5BAA599A9462F4823C1F04C91942BCA
:102AF0009C93ABA5BCA59C914AA9942B9C93ABA598
:102B0000BCA54C919AA9909594239C9386952150AD
:102B1000310931F7DF91CF911F9108954C91909534
:102B20009423E6CF1F93CF93DF93EC01162F8D8D67
:102B30009E8D892BB1F12DA93EA94FA958AD60E01A
:102B400074E284EF90E00E94B029205131094109DC
:102B5000510956954795379527952093B80066EA11
:102B6000111167EACE010E9430158D8D9E8D892B43
:102B700041F129AD3AAD4BAD5CAD60E074E284EF5C
:102B800090E00E94B0292051310941095109569520
:102B90004795379527952093B800DF91CF911F91E6
:102BA00008958B8D9C8D892B21F08EAD9FAD0E9459
:102BB000950CEFA5F8A990818CA980958923808335
:102BC000CECFEFA5F8A980819CA9892B8083E5CF82
:102BD00090E080E00895CF93DF93FC0127812223CA
:102BE00059F1EC0161E080850E94A00761E08985D0
:102BF0000E94A0078F81843011F08830B1F461E029
:102C00008A850E94A00761E08B850E94A0078FA59E
:102C10008F3F91F061E00E94A0076EA581E06827D8
:102C20008FA5DF91CF910C947207833011F086301D
:102C300071F761E08A85E9CFDF91CF910895CF9355
:102C4000DF93FC0127812223A9F0EC010190F081A0
:102C5000E02D0284F385E02D60E009958FA58F3F7C
:102C600049F061E00E94A0076EA58FA5DF91CF918A
:102C70000C947207DF91CF910895DC01ED91FC91E6
:102C8000228533854770552766277727415051099C
:102C900061097109473051056105710560F4FA0158
:102CA000EC5AF94E0C94F1295E1660166216641601
:102CB000661668166A1661E0F901099465E0FCCFB2
:102CC00064E0FACF66E0F8CF62E0F6CF6AE0F4CFD6
:102CD00068E0F2CF69E0F0CFCF93DF93EC01CB0156
:102CE000BA0126E030E040E050E00E94D229623094
:102CF00071058105910589F16CF4611571058105F6
:102D00009105D1F06130710581059105F9F0DF91F0
:102D1000CF910895643071058105910561F124F129
:102D2000653071058105910591F7E881F98102848B
:102D3000F385E02D66E006C0E881F9810284F38521
:102D4000E02D64E0CE01DF91CF910994E881F98113
:102D50000284F385E02D65E0F5CFE881F9810284F6
:102D6000F385E02D61E0EECFE881F9810284F385FF
:102D7000E02D63E0E7CFE881F9810284F385E02D5F
:102D800062E0E0CFDC01ED91FC910284F385E02D5F
:102D90004370552766277727423051056105710535
:102DA00071F0433051056105710559F0413051050D
:102DB0006105710511F065E0099466E0FDCF6AE0F8
:102DC000FBCF69E0F9CFCF93DF93EC01CB01BA01E0
:102DD00023E030E040E050E00E94D22961307105EC
:102DE0008105910599F06230710581059105A9F081
:102DF000672B682B692BC1F4E881F9810284F38584
:102E0000E02D64E0CE01DF91CF910994E881F98152
:102E10000284F385E02D61E0F5CFE881F981028439
:102E2000F385E02D62E0EECFDF91CF910895DC01D4
:102E3000ED91FC910284F385E02D437055276627C0
:102E40007727423051056105710571F04330510516
:102E50006105710559F0413051056105710511F0A9
:102E600062E0099463E0FDCF61E0FBCF60E0F9CF61
:102E7000CF93DF93EC01E881F9810284F385E02DA3
:102E80008A8160E0811162E0CE010995E881F981D3
:102E90000284F385E02D8A8161E0811163E0CE0137
:102EA00009958CA59DA58230910538F0880F991F52
:102EB000880F991F05970197F1F7E881F98102843E
:102EC000F385E02D8A8160E0811162E0CE01DF911F
:102ED000CF910994CF93DF93EC0120E030E0A9017A
:102EE000688D798D8A8D9B8D0E94C32B18162CF4CA
:102EF000E8A9F9A9DF91CF910994EAA9FBA9FACF32
:102F0000CF92DF92EF92FF920F931F93CF93DF93B5
:102F1000DC011796CC91C43039F0C83059F1C33078
:102F200019F0C63049F1C2E08C01085F1F4FF12C47
:102F3000E12CC62ED12CD1E0F8016481C6010E2C03
:102F400002C0959587950A94E2F780FD6D270F5F83
:102F50001F4F80810E947207BFEFEB1AFB0AEC162D
:102F600058F3DF91CF911F910F91FF90EF90DF9079
:102F7000CF900895C4E0D8CFC3E0D6CFDC01179638
:102F8000EC911797E93008F038C0F0E0E653F84EBE
:102F90000C94F129D317D917DF17E517EB17FD1795
:102FA000F117FD17F717ED91FC910684F785E02DD9
:102FB0000994ED91FC910088F189E02DF9CFED9114
:102FC000FC910288F389E02DF3CFED91FC91048808
:102FD000F589E02DEDCFED91FC910688F789E02D84
:102FE000E7CFED91FC91008CF18DE02DE1CFED91DB
:102FF000FC91028CF38DE02DDBCF08954F925F9210
:103000006F927F928F929F92AF92BF92CF92DF92F8
:10301000EF92FF920F931F93CF93DF93EC01CC8835
:10302000DD88EE88FF8888899989AA89BB89C81AB2
:10303000D90AEA0AFB0A688D798D8A8D9B8D9B01DE
:10304000AC010E94182C4B015C0168A179A18AA1F6
:103050009BA19B01AC010E94F8299B01AC01C50119
:10306000B4010E94692A0E94DB2AC114D104E10440
:10307000F10409F0B6C062307105810591050CF0CC
:10308000D0C01B821C821D821E82188E198E1A8E41
:103090001B8E1CAA1DAA1EAA1FAAC12CD12C760108
:1030A000C701B601DF91CF911F910F91FF90EF9073
:1030B000DF90CF90BF90AF909F908F907F906F9058
:1030C0005F904F9008951016110612061306B4F47F
:1030D0006C157D058E059F051CF42A812111A1C068
:1030E0009B01AC0188279927DC01821B930BA40B61
:1030F000B50B8CAB9DABAEABBFAB93C0011511054F
:103100002105310509F48DC06C157D058E059F05DF
:103110000CF087C08A81882309F483C030952095FC
:10312000109501951F4F2F4F3F4F0CAB1DAB2EAB92
:103130003FAB77C0011511052105310509F471C0B8
:103140008824992454018C189D08AE08BF0868157E
:1031500079058A059B050CF064C08A81811161C0E4
:10316000DDCFCCACDDACEEACFFACA7019601C70166
:10317000B6010E94F8292B013C01C501B4010E944F
:10318000132B20E030E040E850E40E94182C20E0AF
:1031900030E040E85FE30E94F8299B01AC01C301E5
:1031A000B2010E94692A9B01AC01C701B6010E94CD
:1031B000F7293B016C01FE01E05CFF4FE080F180EC
:1031C000028113819701A8010E94C32B181614F4E1
:1031D00073018601C701D8018CAF9DAFAEAFBFAF01
:1031E0003AC00CA91DA92EA93FA91C141D041E0438
:1031F0001F040CF468CF10161106120613060CF00B
:1032000099CF0027112798010C191D092E093F0994
:1032100060177107820793070CF062CF2A81211192
:103220005FCF8CA89DA8AEA8BFA881149104A1046B
:10323000B10409F096CF88AD99ADAAADBBAD8CAF06
:103240009DAFAEAFBFAF81E01C141D041E041F0470
:103250000CF080E08A833FEF831A930AA30AB30A33
:103260008CAA9DAAAEAABFAA8CAC9DACAEACBFACDA
:10327000C501B4010E94E22A6B017C01CB82DC8291
:10328000ED82FE82A501940160E074E284E799E496
:103290000E94692A688F798F8A8F9B8F2A812111DA
:1032A000FFCE9058688F798F8A8F9B8FF9CECF92FF
:1032B000DF92EF92FF92CF93DF93CAEFD3E0688D56
:1032C000798D8A8D9B8D9B01AC010E94182C6B011E
:1032D0007C0168A179A18AA19BA19B01AC010E94FC
:1032E000F8299B01AC01C701B6010E94692A0E941E
:1032F000DB2A6CAB7DAB8EAB9FABCE01DF91CF9168
:10330000FF90EF90DF90CF900C94FE170895DC01B2
:10331000ED91FD918081ED91FD919081ED91FD9177
:103320006C9163708E2309F064609F2309F06860DC
:10333000E4EAF9E1E60FF11D659565956D936D91F0
:103340007D918D919D91099423C01AC012C016C021
:1033500010C01EC009C014C013C006C019C009C0E7
:103360000DC007C00DC014C0625070408040904036
:103370000BC0615070408040904006C06E5F01C03D
:103380006F5F7F4F8F4F9F4F9E938E937E936E9371
:10339000089580915203909153030C948719809162
:1033A0005403909155030C9487192091C0033091D8
:1033B000C103C901079697FD079623E09595879568
:1033C0002A95E1F72091BE033091BF03829FA001AF
:1033D000839F500D929F500D112470E060E080910A
:1033E000D9039091DA030C94E92D0E94E42DFB019E
:1033F00001900020E9F73197AF01461B570BDC0124
:10340000ED91FC910280F381E02D09948F929F92BF
:10341000AF92BF92EF92FF920F931F93CF93DF93E0
:10342000CDB7DEB7A1970FB6F894DEBF0FBECDBF04
:103430007C01FA01CB0119A2223008F42AE08E01A6
:103440000F5D1F4F822E912CB12CA12CBF01A50125
:1034500094010E94B029F901CA016A300CF5605D3F
:10346000D8016E938D01232B242B252B79F790E027
:1034700080E0109721F0BD01C7010E94F719A196C5
:103480000FB6F894DEBF0FBECDBFDF91CF911F9175
:103490000F91FF90EF90BF90AF909F908F90089505
:1034A000695CDECFCF92DF92EF92FF92CF93DF93F2
:1034B0006C01990FEE08FF08F7FE1BC06DE28AEB66
:1034C00093E00E94D30EEC0144275527BA014C1912
:1034D0005D096E097F092AE08AEB93E00E94061AD3
:1034E0008C0F9D1FDF91CF91FF90EF90DF90CF90D9
:1034F00008952AE0B701A6018AEB93E0DF91CF910E
:10350000FF90EF90DF90CF900C94061A4F925F924D
:103510006F927F928F929F92AF92BF92CF92DF92E3
:10352000EF92FF920F931F93CF936B017C01742E48
:10353000AC019B010E94852C68E871E0811126C0D6
:1035400046015701E894B7F82FEF3FEF4FE75FE7E9
:10355000C501B4010E94852C81110CC02FEF3FEFF3
:103560004FE75FE7C501B4010E94642A6CE871E08F
:10357000181664F02FEF3FEF4FE75FE4C701B60185
:103580000E94C32B1816ACF460E971E085EB92E061
:10359000CF911F910F91FF90EF90DF90CF90BF9050
:1035A000AF909F908F907F906F905F904F900C9412
:1035B000F7192FEF3FEF4FE75FECC701B6010E940D
:1035C000642A87FDE1CF20E030E0A901C701B60100
:1035D0000E94642A10E000E087FF0AC06DE285EBDC
:1035E00092E00E94A4068C01F7FAF094F7F8F094A8
:1035F000C0E060E070E080E09FE37C1641F020E0F6
:1036000030E040E251E40E94692ACF5FF6CFA70183
:1036100096010E94F8292B013C010E94E22A4B01ED
:103620005C012AE0BC01A40185EB92E00E94061A2D
:103630007C01E00EF11ECC23D1F1C501B4010E9442
:10364000112B9B01AC01C301B2010E94F7294B0170
:103650005C016EE285EB92E00E94A406E80EF91E82
:10366000C15028F120E030E040E251E4C501B4014E
:103670000E94182C2B013C010E94E22A4B01B12C24
:10368000A12C2AE0B501A40185EB92E00E94061A64
:10369000E80EF91EC501B4010E94112B9B01AC017B
:1036A000C301B2010E94F7294B015C01D9CFC701C8
:1036B000CF911F910F91FF90EF90DF90CF90BF902F
:1036C000AF909F908F907F906F905F904F900895F4
:1036D0008F929F92AF92BF92CF92DF92EF92FF9222
:1036E0000F931F93CF93DF930E94D51981E08093AE
:1036F000CE038093CF0381E090E09093CD0380933D
:10370000CC039093CB038093CA03C2E0D0E0D09364
:10371000C703C093C60384E190E09093C9038093EC
:10372000C80364E971E08AEB93E00E94F719D09333
:10373000C703C093C6038EE190E09093C9038093C2
:10374000C80383EF90E00E94A50FD093C703C093F6
:10375000C60388E290E09093C9038093C80383EE88
:1037600090E00E94A50FD093C703C093C60382E3E5
:1037700090E09093C9038093C80389ED90E00E9484
:10378000A50F60915A0370915B0380915C03909147
:103790005D030E94DB2A4B0160910E0170910F01C5
:1037A00080911001909111010E94DB2A6B018091A0
:1037B0009D0290919E02009709F4FBC0019709F0C9
:1037C000FBC088E290E027E530E03093C703209308
:1037D000C6039093C9038093C80387ED90E00E94CD
:1037E000A50FC1E6D0E0D093C703C093C60384E120
:1037F00090E09093C9038093C803C4010E94521AB9
:1038000085ED90E00E94A50FD093C703C093C60337
:103810008EE190E09093C9038093C803C6010E9493
:10382000521A83ED90E00E94A50FD093C703C09376
:10383000C60388E290E09093C9038093C803809107
:103840000401909105010E94521AD093C703C093BE
:10385000C60382E390E09093C9038093C8038091EC
:10386000020190910301009709F0A9C08FEC90E04C
:103870000E94A50F8091D7039091D803892B09F45A
:10388000A6C02091EF033091F0034091F1035091D5
:10389000F20360E074E284EF90E00E94B0292051CE
:1038A0003109410951095695479537952795209338
:1038B000B80065E082EC90E00E947B146091BE034A
:1038C00061508AEB93E00E9430152091C003309143
:1038D000C103C901079697FD079633E09595879533
:1038E0003A95E1F72091BE033091BF03829F80019A
:1038F000839F100D929F100D1124C091D903D09178
:10390000DA038091D7039091D8030C0F1D1F009705
:1039100009F4A2C02091DB0331E03093B40220937C
:10392000B3021092B2021092B102DC01ED91FC914F
:103930000190F081E02D60E40995EE24E394F12CF0
:10394000DD24D3948091D7039091D8030C171D07E1
:1039500009F454C0B0E2EB16F104D8F00E949413BD
:103960008091D7039091D8032091DB03D092B402C9
:103970002093B3021092B2021092B102DC01ED91D9
:10398000FC910190F081E02D60E40995EE24E39430
:10399000F12C8091D7039091D8036991DC01ED91CE
:1039A000FC910190F081E02D0995BFEFEB1AFB0A25
:1039B000C9CF8EE190E007CF82E390E004CF029779
:1039C00019F48BEC90E054CF87EC90E051CF8091CC
:1039D000D5039091D603892B31F08091F803909113
:1039E000F9030E94950CE091E903F091EA039081BC
:1039F0008091EE038095892380835BCF0E9494138E
:103A00008091D7039091D803892B09F466C0209147
:103A1000F3033091F4034091F5035091F60360E015
:103A200074E284EF90E00E94B029205131094109ED
:103A3000510956954795379527952093B800DF9102
:103A4000CF911F910F91FF90EF90DF90CF90BF909B
:103A5000AF909F908F900895E091E703F091E80375
:103A600080819091ED03892B80830C171D0741F213
:103A700089912091D5033091D603232B19F00E9410
:103A80008E0CF3CF28E030E040E8E091E303F091C2
:103A9000E4039091EB03542F5823D9F05081952BD8
:103AA0009083E091E503F091E60390815091EC035F
:103AB000952B9083E091E503F091E603508190917E
:103AC000EC03909595239083469521503109E9F6B2
:103AD000CCCF508190959523E3CFE091E903F0910D
:103AE000EA0380819091EE03892B8083A8CFCF9247
:103AF000DF92EF92FF92CF9381E080930901C5E0BE
:103B0000C12CD12C760180919E038E3008F08E500E
:103B10002091090190E4299F900111248770822B44
:103B200080937C0080917A00806480937A008091F9
:103B30007A0086FDFCCF8091780060917900762F25
:103B4000682F90E080E00E94112B9B01AC01C7011F
:103B5000B6010E94F8296B017C016AE070E080E008
:103B600090E00E944E08C15071F620E030E040EA3B
:103B700050E4C701B6010E94692A6B017C0163EA27
:103B800071E085EB92E00E94F71942E0C701B601AF
:103B90000E94861A6BEB71E085EB92E00E94F719A8
:103BA000A701960160E070EC8FE794E40E94692A17
:103BB00020E030E040E85FE30E94F7296B017C01E0
:103BC00060919C0370919D0390E080E00E94112B16
:103BD000A70196010E94182C6B017C016EEB71E02D
:103BE00085EB92E00E94F71942E0C701B6010E94FE
:103BF000861A6BEB71E085EB92E00E94F7196091F9
:103C00009A0370919B0390E080E00E94112B9B012E
:103C1000AC01C701B6010E94692A0E94D02B6B013A
:103C20007C016091A0037091A10390E080E00E946C
:103C3000112B9B01AC01C701B6010E94692A2FE03C
:103C40003FEC4BE55BE30E94F8299B01AC0160E08F
:103C500070E080E89FE30E94692A23E333E948E8A3
:103C600053E40E94F7296B017C0165ED71E085EB5F
:103C700092E00E94F71942E0C701B6010E94861A3D
:103C800062EE71E085EB92E00E94F7196BEB71E058
:103C900085EB92E00E94F71920E030E040E251E429
:103CA000C701B6010E94182C0E94DB2ACB01CF91DC
:103CB000FF90EF90DF90CF90089585ED8093BC004A
:103CC0008091270290912802A0912902B0912A02A6
:103CD0000796A11DB11D23E0B695A79597958795E9
:103CE0002A95D1F72091BC0024FD03C010927002E8
:103CF0000895409127025091280260912902709105
:103D00002A02452B462B472B69F30097A105B105E5
:103D100041F025E32A95F1F700000197A109B109C7
:103D2000E1CF809126020C94EE120C945B2D1F9231
:103D30000F920FB60F9211242F933F938F939F935F
:103D4000AF93BF938091A9029091AA02A091AB0278
:103D5000B091AC023091A80223E0230F2D3758F523
:103D60000196A11DB11D2093A8028093A9029093F2
:103D7000AA02A093AB02B093AC028091AD029091E5
:103D8000AE02A091AF02B091B0020196A11DB11D8B
:103D90008093AD029093AE02A093AF02B093B002B5
:103DA000BF91AF919F918F913F912F910F900FBE37
:103DB0000F901F90189526E8230F0296A11DB11DA4
:103DC000D2CF1F920F920FB60F9211242F933F93D1
:103DD0004F935F936F937F938F939F93AF93BF9313
:103DE000EF93FF93E0910C01F0910D010995FF9184
:103DF000EF91BF91AF919F918F917F916F915F9163
:103E00004F913F912F910F900FBE0F901F901895DB
:103E10001F920F920FB60F9211242F933F934F933F
:103E20005F936F937F938F939F93AF93BF93EF9322
:103E3000FF93E0910A01F0910B010995FF91EF9139
:103E4000BF91AF919F918F917F916F915F914F91B2
:103E50003F912F910F900FBE0F901F9018951F92BA
:103E60000F920FB60F9211242F933F934F935F93AE
:103E70006F937F938F939F93AF93BF93EF93FF9332
:103E800085EB92E00E948206FF91EF91BF91AF9186
:103E90009F918F917F916F915F914F913F912F9162
:103EA0000F900FBE0F901F9018951F920F920FB694
:103EB0000F9211242F938F939F93EF93FF93E09191
:103EC000C502F091C6028081E091CB02F091CC0254
:103ED00082FD1BC090818091CE028F5F8F732091F5
:103EE000CF02821741F0E091CE02F0E0EB54FD4F9B
:103EF000958F8093CE02FF91EF919F918F912F919B
:103F00000F900FBE0F901F9018958081F4CF1F92D5
:103F10000F920FB60F9211242F933F934F935F93FD
:103F20006F937F938F939F93AF93BF93EF93FF9381
:103F30008091B900887F803609F44AC0F0F5883254
:103F400009F4A7C018F5803109F49BC0B8F48823A0
:103F500009F4F9C0883009F494C0FF91EF91BF9142
:103F6000AF919F918F917F916F915F914F913F9111
:103F70002F910F900FBE0F901F901895883109F464
:103F800088C0803251F780936F0214C0803409F4E6
:103F90009DC040F48033B9F38833F9F680936F0203
:103FA00085ECB0C0803509F485C0883509F496C029
:103FB000883499F60E945D1ED0CF883909F48CC0F0
:103FC00038F5883729F050F4883611F0803729F613
:103FD00083E08093700210926E0257C0883809F413
:103FE0007BC0803919F0803809F0B7CF80916E021C
:103FF000803208F071C0E0916E0281E08E0F8093F4
:104000006E028091BB00F0E0E25BFD4F80833DC01B
:10401000803B39F0E0F4803A09F479C0883A09F03D
:104020009CCF84E08093700210924D0210924C025B
:10403000E0919902F0919A02099580914C028111C8
:104040000FC081E080934C0210922C0209C0803C8A
:1040500009F4A6CF883C09F4A3CF883B09F07DCFB3
:10406000E0914D0281E08E0F80934D02F0E0E45D1F
:10407000FD4F80818093BB0090914D0280914C0256
:1040800029C0809195028093BB0085EC8093BC0091
:1040900064CF9091940280919302981758F5E09123
:1040A000940281E08E0F80939402F0E0ED58FD4F72
:1040B0008081E9CFE091940281E08E0F8093940299
:1040C0008091BB00F0E0ED58FD4F80839091940209
:1040D000809193029817C8F285E8D8CFE0919402B6
:1040E00081E08E0F809394028091BB00F0E0ED5848
:1040F000FD4F80838091720281115CCF81E08093BB
:10410000710284EA8093BC001092700226CF85EC85
:104110008093BC001092700280916E02803230F465
:10412000E0916E02F0E0E25BFD4F108260916E0262
:1041300070E0E0919702F09198028EE492E0099588
:1041400010926E020ACF10926F0234CF8F929F921C
:10415000AF92BF92CF92DF92EF92FF92CF93DF9315
:104160001092B8021092B70288EE93E0A0E0B0E09F
:104170008093B9029093BA02A093BB02B093BC02A1
:104180002CE131E03093B6022093B50225EC30E00B
:104190003093C2022093C10224EC30E03093C40279
:1041A0002093C30220EC30E03093C6022093C50276
:1041B00021EC30E03093C8022093C70222EC30E0BB
:1041C0003093CA022093C90226EC30E03093CC022F
:1041D0002093CB021092CE021092CF021092D00206
:1041E0001092D1021092B1031092B0038093B203E7
:1041F0009093B303A093B403B093B5038EE291E020
:104200009093AF038093AE038CE691E09093FB0311
:104210008093FA0381E08093010410920A041092C3
:104220000B0410920C0410920D0410920E041092C4
:104230000F041092100410921104109212041092A4
:104240001304109214041092150410921604109284
:104250001704109218041092190410921A04109264
:104260001B0410921C0410921D04C12CD12C20E8B8
:10427000E22E2FE3F22EC0921E04D0921F04E09291
:104280002004F09221041092FD031092FE0310927C
:10429000FF031092000481E090E090932704809344
:1042A00026048FEF80932904109222041092230495
:1042B000109224041092250487E08093020486E083
:1042C0008093030484E08093040485E080930504D4
:1042D0001092280410922E0410922F041092300491
:1042E000109231041092320410923304109234046C
:1042F000109235041092360410923704109238044C
:1043000010923904C0923A04D0923B04E0923C04EB
:10431000F0923D041092FC031092060410920704E0
:1043200010920804109209048AEF93E00E94EB15A2
:1043300080901A0490901B04A0901C04B0901D045F
:10434000A7019601C501B4010E94642A882381F166
:1043500060912E0470912F0480913004909131046B
:104360000E94132BA50194010E94182C0E94DB2AA5
:1043700060932E0470932F04809330049093310443
:1043800086E896E6A9E6B9E4809332049093330474
:10439000A0933404B0933504C0921A04D0921B0445
:1043A000E0921C04F0921D048AEF93E00E94FE1735
:1043B00020E030E040E85FE360911604709117045C
:1043C00080911804909119040E94642A882339F17D
:1043D00080E090E0A0E8BFE3809316049093170478
:1043E000A0931804B093190480E094E2A4E7B9E420
:1043F00080933A0490933B04A0933C04B0933D0413
:1044000080912E0490912F04A0913004B09131043A
:10441000181619061A061B0614F40E945719109252
:10442000BD031092BC0320E830E03093BF0320931B
:10443000BE0380E490E09093C1038093C003309367
:10444000C3032093C2039093C5038093C4031092C7
:10445000D0031092C7031092C6031092C9031092A2
:10446000C80381E08093CF038093CE032FEF3FEF0B
:104470003093CD032093CC033093CB032093CA0316
:104480008093D1031092D2031092D4031092D303DD
:1044900080E491E09093BB038093BA031092D6031B
:1044A0001092D5038EEA93E09093D8038093D703BC
:1044B0001092DA031092D9038FEF8093DE0380937A
:1044C000DF038093E0038093E1038093E20380E8BD
:1044D0009AE1A6E0B0E08093EF039093F003A093FD
:1044E000F103B093F20380EA96E8A1E0B0E0809394
:1044F000F3039093F403A093F503B093F60380E5E0
:104500008093F8031092F90362E082E00E94A00712
:1045100062E083E00E94A007E8E0FBE0E491F0E0C5
:10452000EE0FFF1FE450F54FA591B491B093A30394
:10453000A093A203EAEEFAE044914093A603E9E0D7
:10454000FBE0E491F0E0EE0FFF1FE450F54FC59162
:10455000D491D093A503C093A403EBEEFAE0E491C9
:10456000E093A7031092A9031092AA031092AB0341
:104570001092AC032BE33FE1C9010197F1F79C9145
:10458000842F892391E009F490E08881E82309F0E1
:10459000926022EA33E09093A80330935303209370
:1045A000520389EC99E190930B0180930A01809169
:1045B00069008C7F816080936900E89A91E0909314
:1045C000AD0330935503209354032FEC39E130931E
:1045D0000D0120930C0180916900837F846080939A
:1045E0006900E99A82E08093AD032EE030E03093D9
:1045F0009F0320939E0322E330E030939B0320939C
:104600009A032CE13CE03093A1032093A00326E31E
:1046100030E030939D0320939C0326E533E03093F4
:104620007D0320937C032AE533E030937B032093C2
:104630007A032EE031E030937F0320937E031092C3
:10464000980310929003109291031092920310928B
:10465000930340E050E06FE773E44093940350937A
:104660009503609396037093970344E650E060E0EF
:1046700070E040938C0350938D0360938E0370938E
:104680008F03109277031092760321E030E030938D
:104690007903209378039093990380E090E0A0EA57
:1046A000B2E480935E0390935F03A0936003B093A2
:1046B000610340E050E06CE072E440936203509389
:1046C0006303609364037093650380936603909320
:1046D0006703A0936803B093690380936A03909380
:1046E0006B03A0936C03B0936D0380E090E0A0E6B1
:1046F000B0E480936E0390936F03A0937003B09324
:10470000710380E090E0A8E4B4E480937203909396
:104710007303A0937403B09375030E948008C09044
:104720008C03D0908D03E0908E03F0908F036C1972
:104730007D098E099F0960938003709381038093A4
:10474000820390938303DF91CF91FF90EF90DF90EE
:10475000CF90BF90AF909F908F900895789484B53C
:10476000826084BD84B5816084BD85B5826085BD6D
:1047700085B5816085BD80916E00816080936E00FB
:1047800010928100809181008260809381008091ED
:10479000810081608093810080918000816080939E
:1047A00080008091B10084608093B1008091B0005E
:1047B00081608093B00080917A00846080937A0059
:1047C00080917A00826080937A0080917A00816083
:1047D00080937A0080917A00806880937A001092AA
:1047E000C1008091D9039091DA03892B11F52091B2
:1047F000C0033091C103C901079697FD0796B3E046
:1048000095958795BA95E1F72091BE033091BF0346
:10481000AC01429FC001439F900D529F900D112407
:104820000E94BF2C9093DA038093D903892B09F45B
:104830005AC20E94D5192091C0033091C1038091C2
:10484000BE039091BF03B901213231050CF442C17E
:104850006054710977FF02C06F5F7F4F7595679550
:104860008255910997FD019600E410E022E530E0C1
:1048700040E058E0959587950E949A1182E08093D8
:10488000DC038091D7039091D803892B09F435C1BB
:104890008CE38093DB0310929C0210929B02109297
:1048A000B2021092B1020E94D01287E09AE0909377
:1048B0009A028093990288E09AE0909398028093FC
:1048C00097028091E20387FD1EC061E00E94A0076D
:1048D00061E08091E2030E94720761E070E080E095
:1048E00090E00E944E0860E08091E2030E9472070F
:1048F0006AE070E080E090E00E944E0861E0809104
:10490000E2030E9472078091D7039091D803892B0C
:1049100009F4B2C12091EF033091F0034091F1030B
:104920005091F20360E074E284EF90E00E94B029BD
:1049300020513109410951095695479537952795D9
:104940002093B80064E08CE196E00E947B146091B3
:10495000C00361508AEB93E00E94301564E088E167
:1049600096E00E947B148091DC0360E1813009F0C5
:1049700064E18AEB93E00E94301564E084E196E004
:104980000E947B148FE88093F7038091BE0390917F
:10499000BF038038910509F088C18091C0039091D0
:1049A000C1038034910509F090C18091DC0381300E
:1049B00009F079C18FE98093F703C2E16AED8AEBD0
:1049C00093E00E9430156C2F8AEB93E00E94301523
:1049D00061E88AEB93E00E9430156091F7038AEB5F
:1049E00093E00E94301569ED8AEB93E00E94301548
:1049F0008091DC0362E2813009F061EF8AEB93E0A1
:104A00000E94301566E08EE096E00E947B14809153
:104A1000D7039091D803892B09F45BC12091F3034C
:104A20003091F4034091F5035091F60360E074E295
:104A300084EF90E00E94B0292051310941095109C9
:104A400056954795379527952093B8000E94D5191C
:104A500061E083E00E94A00780919803C0917C03ED
:104A6000D0917D03811150C1C880D980EA80FB803C
:104A7000C0928403D0928503E0928603F09287036C
:104A8000E0917A03F0917B0380819181A281B381CF
:104A90008093880390938903A0938A03B0938B0338
:104AA0008090940390909503A0909603B090970304
:104AB000A5019401C701B6010E94C32B18160CF082
:104AC00013C18092840390928503A0928603B092D2
:104AD00087031AC16052710977FF02C06F5F7F4F71
:104AE000759567958357910997FD019600E210E04F
:104AF00023E730E040E256E0BDCE61E08091E00384
:104B00000E94A00761E08091E1030E94A0078091CC
:104B1000E003082E000C990BFC01EA5FF44FE491CE
:104B2000F0E0EE0FFF1FE653F54F259134913093DF
:104B3000E8032093E703FC01E851F54FE491E0938B
:104B4000ED038091E103082E000C990BFC01EA5F54
:104B5000F44FE491F0E0EE0FFF1FE653F54FA591FF
:104B6000B491B093EA03A093E903FC01E851F54F37
:104B7000E491E093EE038C91E82BEC938091D503C4
:104B80009091D603892B09F434C0CFB7F894809163
:104B90009602811127C0E0E1FBE08491E2EFFAE0A8
:104BA0009491E82FF0E0EE0FFF1FE054F54FA59130
:104BB000B491EC91E92321F461E08AE00E9472074C
:104BC00061E08AE00E94A0078CB580618CBD8CB545
:104BD00080648CBD61E08DE00E94A00761E08BE005
:104BE0000E94A007809196028F5F80939602CFBFAC
:104BF00068CE61E08091DE030E94A00761E08091B1
:104C0000DF030E94A0078091DE03082E000C990BA1
:104C1000FC01EA5FF44FE491F0E0EE0FFF1FE65372
:104C2000F54F259134913093E4032093E303FC0185
:104C3000E851F54FE491E093EB038091DF03082EF8
:104C4000000C990BFC01EA5FF44FE491F0E0EE0FE9
:104C5000FF1FE653F54FA591B491B093E603A093DF
:104C6000E503FC01E851F54FE491E093EC038C91EE
:104C7000E095E823EC9325CE8091D5039091D6035F
:104C8000892B31F08091F8039091F9030E94950CE3
:104C9000E091E903F091EA0390818091EE03809521
:104CA000892380834FCE8FEC86CE8036910569F4C0
:104CB0008091C0039091C103409739F48091DC0347
:104CC000813029F480E18093F703C2E077CE8FEA48
:104CD000FACFE091E903F091EA0380819091EE032D
:104CE000892B8083B3CEFFCF809090039090910367
:104CF000A0909203B0909303A5019401C701B6015F
:104D00000E94642A87FDDDCE81E080939803109293
:104D10009003109291031092920310929303812CAE
:104D2000912C3FE7A32E33E4B32E8092940390920C
:104D30009503A0929603B0929703C880D980EA8029
:104D4000FB80A5019401C701B6010E94C32B181670
:104D50002CF588829982AA82BB82809084039090ED
:104D60008503A0908603B0908703C0909403D090F1
:104D70009503E0909603F0909703A7019601C50173
:104D8000B4010E94C32B1816BCF4C0928403D092C5
:104D90008503E0928603F09287031EC020E030E096
:104DA000A901C701B6010E94642A87FFD6CF1882E5
:104DB00019821A821B82D1CFC0909003D0909103A8
:104DC000E0909203F0909303A7019601C501B4010E
:104DD0000E94642A87FDD9CF0E94771DBC01990FDC
:104DE000880B990B0E94132B60935A0370935B03FB
:104DF00080935C0390935D0362E08FE00E94A007C4
:104E000020E030E048E452E4609116047091170409
:104E100080911804909119040E94642A882339F122
:104E200080E090E0A8E4B2E4809316049093170425
:104E3000A0931804B093190480E090E4ACE9B6E4C0
:104E400080933A0490933B04A0933C04B0933D04B8
:104E500080912E0490912F04A0913004B0913104E0
:104E6000181619061A061B0614F40E94571960E05A
:104E700070E080E291E40E94B90584E0C82ED12C54
:104E8000E12CF12C22242394812C912C5401839425
:104E900044244A94542C320101E010E00E9480081E
:104EA0006093A4027093A5028093A6029093A70238
:104EB0000E94771DBC01990F880B990B0E94132B40
:104EC00060935A0370935B0380935C0390935D033C
:104ED0008091980381110E948C0860915603709113
:104EE000570380915803909159030E94DB2ACB010C
:104EF0000E94D1070E94681B0E948008AB01BC0180
:104F00008091A4029091A502A091A602B091A7025F
:104F10008C509E4FAF4FBF4F481759076A077B070A
:104F200008F002C28091AD03823008F07FC1F8948E
:104F300082EA93E00E9487196091A9037091AA0305
:104F40008091AB039091AC037894A70196010E94E5
:104F5000D22930930801209307010E944E07382E72
:104F600080910601381639F10E9480082091A00234
:104F70003091A1024091A2025091A302621B730BD7
:104F8000840B950B6A30710581059105A0F0C091E5
:104F90009D02D0919E020E9480086093A0027093AF
:104FA000A1028093A2029093A302309206013110D5
:104FB0003FC120929F0280919D0290919E0260913C
:104FC000070170910801009709F068C164527F4F92
:104FD000072E000C880B990B0E94132B60930E0177
:104FE00070930F0180931001909311018091020141
:104FF00090910301009709F067C180910E04909190
:105000000F04A0911004B09111048F3F9F4FAF4F38
:10501000BF4F61F040920E0450920F046092100452
:10502000709211048AEF93E00E94FE170E94681BA1
:105030008091020190910301019709F45DCFC2E0D4
:10504000D0E08091AD03823008F05BC1F89482EA31
:1050500093E00E9487198091A9039091AA03A091DF
:10506000AB03B091AC037894823091050CF44BC142
:10507000D0930801C0930701809107019091080126
:1050800020910001309101012817390791F0909388
:10509000010180930001F894092E000CAA0BBB0BB0
:1050A0008093A9039093AA03A093AB03B093AC039E
:1050B00078940E944E07182F80910601181769F105
:1050C0000E948008C090A002D090A102E090A202AD
:1050D000F090A3026C197D098E099F096A30710551
:1050E00081059105D0F00E9480086093A002709322
:1050F000A1028093A2029093A30210930601109242
:10510000080110920701F8941092A9031092AA03C3
:105110001092AB031092AC037894809107019091A8
:10512000080190930301809302018091FD03909107
:10513000FE03A091FF03B0910004892B8A2B8B2BD7
:1051400009F44FC00E9429086B017C018091220460
:1051500090912304A0912404B0912504B701A601E5
:10516000481B590B6A0B7B0B8091FD039091FE034A
:10517000A091FF03B0910004481759076A077B0705
:1051800080F180910A0490910B04A0910C04B091DD
:105190000D042091FC03222309F4C2C00196A11D35
:1051A000B11D80930A0490930B04A0930C04B09358
:1051B0000D0440910A0450910B0460910C0470910D
:1051C0000D048AEF93E00E94BE17C0922204D09291
:1051D0002304E0922404F09225048AEF93E00E94D5
:1051E000FE170E94771DBC01990F880B990B0E9436
:1051F000132B60935A0370935B0380935C0390932B
:105200005D038091980381110E948C086091560380
:105210007091570380915803909159030E94DB2AA3
:10522000CB010E94D1070E94681B0BCFF89484CE5B
:1052300080919F02882309F4BECE10929F0220978E
:1052400069F410939E0200939D0280910401909155
:1052500005019093080180930701ADCE219759F481
:1052600082E090E090939E0280939D0280910201E3
:1052700090910301EECF10929E0210929D026091D8
:105280000E0170910F0180911001909111010E9407
:10529000DB2A70930801609307018DCE019779F4A2
:1052A0006A5E7F4F7093050160930401072E000C26
:1052B000880B990B0E94132B0E94B90597CE70930F
:1052C00003016093020192CE0297B1F480910E0423
:1052D00090910F04A0911004B09111040197A105C1
:1052E000B10509F4A3CE80920E0490920F04A0920F
:1052F0001004B092110496CE8AEF93E00E941F161C
:1053000095CEF894A8CE8130910529F490930801A8
:1053100080930701B1CE1092080110920701ACCE24
:105320000197A109B1093DCF40E050E0452B09F4B8
:10533000B5CD0E941107882309F4B0CD0E9400006A
:10534000ADCD80E491E09093BB038093BA0380914C
:10535000D9039091DA03009711F00C945B2D089516
:10536000A1E21A2EAA1BBB1BFD010DC0AA1FBB1F69
:10537000EE1FFF1FA217B307E407F50720F0A21BDB
:10538000B30BE40BF50B661F771F881F991F1A9448
:1053900069F760957095809590959B01AC01BD0172
:1053A000CF010895052E97FB1EF400940E94E92971
:1053B00057FD07D00E94B02907FC03D04EF40C948F
:1053C000E92950954095309521953F4F4F4F5F4FBC
:1053D000089590958095709561957F4F8F4F9F4F61
:1053E0000895EE0FFF1F0590F491E02D0994505899
:1053F000BB27AA270E940F2A0C94892B0E947B2B83
:1054000038F00E94822B20F039F49F3F19F426F4E3
:105410000C94782B0EF4E095E7FB0C94722BE92F9B
:105420000E949A2B58F3BA176207730784079507EF
:1054300020F079F4A6F50C94BC2B0EF4E0950B2E1D
:10544000BA2FA02D0B01B90190010C01CA01A001D6
:105450001124FF27591B99F0593F50F4503E68F131
:105460001A16F040A22F232F342F4427585FF3CF72
:10547000469537952795A795F0405395C9F77EF443
:105480001F16BA0B620B730B840BBAF09150A1F08C
:10549000FF0FBB1F661F771F881FC2F70EC0BA0F12
:1054A000621F731F841F48F4879577956795B7959A
:1054B000F7959E3F08F0B0CF9395880F08F0992795
:1054C000EE0F9795879508950E944E2B08F481E082
:1054D00008950E947D2A0C94892B0E94822B58F0FB
:1054E0000E947B2B40F029F45F3F29F00C94722B33
:1054F00051110C94BD2B0C94782B0E949A2B68F3BD
:105500009923B1F3552391F3951B550BBB27AA277C
:1055100062177307840738F09F5F5F4F220F331FB6
:10552000441FAA1FA9F335D00E2E3AF0E0E832D07E
:1055300091505040E695001CCAF72BD0FE2F29D081
:10554000660F771F881FBB1F261737074807AB0753
:10555000B0E809F0BB0B802DBF01FF2793585F4FC8
:105560003AF09E3F510578F00C94722B0C94BD2BB1
:105570005F3FE4F3983ED4F3869577956795B795AA
:10558000F7959F5FC9F7880F911D9695879597F9B5
:105590000895E1E0660F771F881FBB1F621773072E
:1055A0008407BA0720F0621B730B840BBA0BEE1F43
:1055B00088F7E09508950E94E22A6894B1110C944E
:1055C000BD2B08950E94A22B88F09F5798F0B92F09
:1055D0009927B751B0F0E1F0660F771F881F991F28
:1055E0001AF0BA95C9F714C0B13091F00E94BC2BE3
:1055F000B1E008950C94BC2B672F782F8827B85FF3
:1056000039F0B93FCCF3869577956795B395D9F77F
:105610003EF490958095709561957F4F8F4F9F4F89
:105620000895E89409C097FB3EF490958095709595
:1056300061957F4F8F4F9F4F9923A9F0F92F96E9DE
:10564000BB279395F695879577956795B795F11153
:10565000F8CFFAF4BB0F11F460FF1BC06F5F7F4FF0
:105660008F4F9F4F16C0882311F096E911C0772302
:1056700021F09EE8872F762F05C0662371F096E80B
:10568000862F70E060E02AF09A95660F771F881FDA
:10569000DAF7880F9695879597F90895990F00087E
:1056A000550FAA0BE0E8FEEF16161706E807F907F4
:1056B000C0F012161306E407F50798F0621B730B8F
:1056C000840B950B39F40A2661F0232B242B252B10
:1056D00021F408950A2609F4A140A6958FEF811DB3
:1056E000811D089597F99F6780E870E060E0089554
:1056F0009FEF80EC089500240A94161617061806EA
:105700000906089500240A941216130614060506C5
:105710000895092E0394000C11F4882352F0BB0F56
:1057200040F4BF2B11F460FF04C06F5F7F4F8F4FB9
:105730009F4F089557FD9058440F551F59F05F3FF4
:1057400071F04795880F97FB991F61F09F3F79F0A3
:1057500087950895121613061406551FF2CF469525
:10576000F1DF08C0161617061806991FF1CF8695A7
:105770007105610508940895E894BB27662777278B
:10578000CB0197F908950E944E2B08F48FEF0895EE
:1057900016F00C948A2C0C94782B68940C94722B31
:1057A0000E94A22BA8F39923C1F3AEF3DF93CF930A
:1057B0001F930F93FF92C92FDD2788232AF021978B
:1057C000660F771F881FDAF720E030E040E85FEBD4
:1057D0009FE3883920F0803E38F021968F770E9431
:1057E000F829E8E6F0E004C00E94F829E5E9F0E0D5
:1057F0000E94982C8B01BE01EC01FB2E6F577109A2
:105800007595771F880B990B0E94132B28E132E7BF
:1058100041E35FE30E942B2CAF2D9801AE01FF9076
:105820000F911F91CF91DF910E940F2A0C94892B29
:105830000E942B2C0C94892B0E947B2B38F00E9409
:10584000822B20F0952311F00C94722B0C94782B62
:1058500011240C94BD2B0E949A2B70F3959FC1F3D9
:10586000950F50E0551F629FF001729FBB27F00D0E
:10587000B11D639FAA27F00DB11DAA1F649F662763
:10588000B00DA11D661F829F2227B00DA11D621FB2
:10589000739FB00DA11D621F839FA00D611D221F6C
:1058A000749F3327A00D611D231F849F600D211D50
:1058B000822F762F6A2F11249F5750409AF0F1F0D3
:1058C00088234AF0EE0FFF1FBB1F661F771F881F3C
:1058D00091505040A9F79E3F510580F00C94722BD7
:1058E0000C94BD2B5F3FE4F3983ED4F386957795F7
:1058F0006795B795F795E7959F5FC1F7FE2B880FE2
:10590000911D9695879597F908950E944E2B880BC7
:10591000990B08959F3F31F0915020F4879577952A
:105920006795B795880F911D9695879597F9089576
:10593000DF93CF931F930F93FF92EF92DF927B0140
:105940008C01689406C0DA2EEF010E942B2CFE0118
:10595000E894A5912591359145915591A6F3EF01D4
:105960000E940F2AFE019701A801DA9469F7DF90DF
:10597000EF90FF900F911F91CF91DF9108950F93BA
:105980001F93CF93DF938230910510F482E090E073
:10599000E0914004F091410430E020E0B0E0A0E06C
:1059A000309799F42115310509F44AC0281B390BA9
:1059B00024303105D8F58A819B816115710589F103
:1059C000FB0193838283FE0111C0408151810281DA
:1059D000138148175907E0F04817590799F41097B1
:1059E00061F012960C93129713961C933296CF0186
:1059F000DF91CF911F910F91089500934004109370
:105A00004104F4CF2115310551F04217530738F006
:105A1000A901DB019A01BD01DF01F801C1CFEF014E
:105A2000F9CF9093410480934004CDCFFE01E20F63
:105A3000F31F819391932250310939832883D7CF63
:105A400020913E0430913F04232B41F42091140116
:105A50003091150130933F0420933E0420911201B0
:105A6000309113012115310541F42DB73EB7409116
:105A7000160150911701241B350BE0913E04F09163
:105A80003F04E217F307A0F42E1B3F0B281739073A
:105A900078F0AC014E5F5F4F2417350748F04E0F8A
:105AA0005F1F50933F0440933E04819391939FCF97
:105AB000F0E0E0E09CCFCF93DF930097E9F0FC01AA
:105AC000329713821282A0914004B0914104ED01FB
:105AD00030E020E01097A1F420813181820F931FE4
