:100000000C9490050C944F180C9428180C94B80577
:100010000C94B8050C94B8050C94B8050C94B8056C
:100020000C94B8050C94B8050C94B8050C94ED1913
:100030000C94B8050C94B8050C94B8050C94B8054C
:100040000C94DE170C94B8050C949C180C9476183C
:100050000C94B8050C94B8050C94B8050C94B8052C
:100060000C94CE180C94B80508000000BE922449E8
:10007000123EABAAAA2ABECDCCCC4C3E00000080DA
:10008000BEABAAAAAA3E00000000BF000000803F4D
:100090000000000000084178D3BB4387D1133D190D
:1000A0000E3CC3BD4282AD2B3E68EC8276BED98F3A
:1000B000E1A93E4C80EFFFBE01C4FF7F3F0000007E
:1000C000000000000000003E5B4F5B3E3E6B4F6B4C
:1000D0003E1C3E7C3E1C183C7E3C181C577D571C29
:1000E0001C5E7F5E1C00183C1800FFE7C3E7FF00A2
:1000F00018241800FFE7DBE7FF30483A060E2629F0
:10010000792926407F050507407F05253F5A3CE7B2
:100110003C5A7F3E1C1C08081C1C3E7F14227F2278
:10012000145F5F005F5F06097F017F006689956A43
:10013000606060606094A2FFA29408047E040810CE
:10014000207E201008082A1C08081C2A08081E10F7
:100150001010100C1E0C1E0C30383E3830060E3EAF
:100160000E06000000000000005F0000000700070E
:1001700000147F147F14242A7F2A12231308646238
:1001800036495620500008070300001C2241000099
:1001900041221C002A1C7F1C2A08083E08080080F7
:1001A000703000080808080800006060002010088F
:1001B00004023E5149453E00427F40007249494990
:1001C000462141494D331814127F102745454539C2
:1001D0003C4A4949314121110907364949493646C6
:1001E0004949291E000014000000403400000008A6
:1001F0001422411414141414004122140802015949
:1002000009063E415D594E7C1211127C7F494949D5
:10021000363E414141227F4141413E7F494949416A
:100220007F090909013E414151737F0808087F0099
:10023000417F41002040413F017F081422417F401F
:100240004040407F021C027F7F0408107F3E4141F6
:10025000413E7F090909063E4151215E7F09192966
:1002600046264949493203017F01033F4040403F50
:100270001F2040201F3F4038403F63140814630391
:10028000047804036159494D43007F414141020410
:10029000081020004141417F040201020440404017
:1002A0004040000307080020545478407F2844440D
:1002B000383844444428384444287F385454541827
:1002C00000087E090218A4A49C787F080404780022
:1002D000447D40002040403D007F10284400004104
:1002E0007F40007C047804787C0804047838444417
:1002F0004438FC1824241818242418FC7C0804040E
:1003000008485454542404043F44243C4040207C76
:100310001C2040201C3C4030403C44281028444CC9
:100320009090907C4464544C440008364100000096
:10033000770000004136080002010204023C262337
:10034000263C1EA1A161123A4040207A38545455EF
:1003500059215555794122545478422155547840B9
:1003600020545579400C1E52721239555555593941
:100370005454545939555454580000457C41000296
:10038000457D420001457C407D1211127DF02825FB
:1003900028F07C545545002054547C547C0A097F35
:1003A0004932494949323A4444443A324A48483049
:1003B0003A4141217A3A42402078009DA0A07D3DFB
:1003C0004242423D3D4040403D3C24FF2424487E83
:1003D0004943662B2FFC2F2BFF0929F620C0887E6E
:1003E000090320545479410000447D413048484A73
:1003F00032384040227A007A0A0A727D0D19317D26
:100400002629292F28262929292630484D402038F9
:100410000808080808080808382F10C8ACBA2F10B8
:100420002834FA00007B000008142A142222142A1F
:1004300014085500550055AA55AA55AAFF55FF5551
:10044000FF000000FF00101010FF00141414FF0044
:100450001010FF00FF1010F010F0141414FC001422
:1004600014F700FF0000FF00FF1414F404FC141440
:1004700017101F10101F101F1414141F001010103D
:10048000F0000000001F101010101F10101010F0CE
:1004900010000000FF101010101010101010FF10AE
:1004A000000000FF140000FF00FF00001F101700F5
:1004B00000FC04F414141710171414F404F40000CE
:1004C000FF00F714141414141414F700F714141480
:1004D000171410101F101F141414F4141010F0101F
:1004E000F000001F101F0000001F14000000FC148B
:1004F0000000F010F01010FF10FF141414FF14107F
:1005000010101F00000000F010FFFFFFFFFFF0F0D1
:10051000F0F0F0FFFFFF0000000000FFFF0F0F0FE3
:100520000F0F3844443844FC4A4A4A347E020206DB
:1005300006027E027E0263554941633844443C040E
:10054000407E201E2006027E020299A5E7A5991C86
:100550002A492A1C4C7201724C304A4D4D303048A9
:10056000784830BC625A463D3E494949007E010107
:10057000017E2A2A2A2A2A44445F444440514A449C
:100580004040444A51400000FF0103E080FF00006A
:1005900008086B6B083612362436060F090F060062
:1005A0000018180000001010003040FF0101001F6B
:1005B00001011E00191D1712003C3C3C3C000000CC
:1005C0000000000103070F1F3F7F0080C0E0F0F82C
:1005D000FCFEDB40A4A62EAF2000A1C8D300408DB6
:1005E000AED580A800006000000000000000000000
:1005F0000000000000E0000000000000000000001B
:1006000000000001E0000000000000000000000009
:10061000000001F0000000000000000000000000E9
:100620000003F000000000000000000000000000D7
:1006300007F00000000000000000000000000007BC
:10064000F8000000000000000000000000000FF8AB
:1006500000000003C0007E000001E0007F0FF800F2
:10066000000003C000FE000001E000FFEFF8000002
:100670000003C000FE000001E000FFFFF8000000E2
:1006800003C000F00000000F007FFE7FC0000003E9
:10069000C000F00000000F003FFE7FF83FF1FBCFED
:1006A000FCFEF3BC3DEFE01FFE7FFF7FFBFFDFFEA4
:1006B000FEFFBC3DEFE01FC6FFFF7FFBFFDFFEFE3E
:1006C000FFBC3DEFE00FE3C7FE787BC3DE1EF0FF0B
:1006D000BC3DEF0007FF87FC787BC3DE1EF0F83CD3
:1006E0003DEF0001FFFFF0007BC3C01EF0F03C3D7A
:1006F000EF0001F37FE03FFBC3CFFEF0F03C3DEFA6
:100700000003E33F807FFBC3DFFEF0F03C3DEF00E2
:1007100007E73C00787BC3DE1EF0F03C3DEF0007AE
:10072000FFBE00787BC3DE1EF0F03C3DEF0007FF0C
:10073000FE00787BC3DE1EF0F03C3DEF000FFFFEB5
:10074000007FFBFFDFFEF0F03FFDEFE00FFFFF005B
:100750007FFBFFDFFEF0F03FFDEFE00FF9FF003E13
:1007600079F9CF9EF0F01F3DE7E01FF1FF00000098
:100770000000000000000000001F80FF007FFFFF5E
:10078000FFFFFFFFFFFFFFE01C007F007FFFFFFF79
:10079000FEB46D888D18E000001F007FFFFFFFFE94
:1007A00095AD7DB577E000000F007FFFFFFFFEA550
:1007B000AD9D8D19E0000006007FFFFFFFFEB5AD87
:1007C000EDB57EE0000000000001800000000000A8
:1007D000000000000380000000000000000000078F
:1007E000C000000000000000000007C00000000082
:1007F00000000000000FC00000000000000000002A
:100800001FE00000000000000000001FE0000000EA
:100810000000000000003FE00000000000000000B9
:10082000003FF00000000000000000007FF000002A
:1008300000000000001FF87FF00000000000000032
:100840003FFE7FF0000000000000003FFF7FF0004F
:100850000000000000001FFFFBE00000000000009F
:10086000000FFFF9FFC00000000000000FFFF9FFBC
:10087000F800000000000007FFF1FFFF000000008B
:10088000000003FC73FFFF80000000000001FE3F3A
:10089000FFFF80000000000000FF1E0FFF000000AF
:1008A000000000007FFE1FFC000000000000003F71
:1008B000FFFFF8000000000000000FDFFFE0000075
:1008C00000000000001F19FFC00000000000000031
:1008D0003F3CFF00000000000000007E7CF80000AC
:1008E0000000000000007FFE7C000000000000000F
:1008F00000FFFFFC0000000000000000FFFFFE0002
:1009000000000000000000FFFFFE000000000000EB
:100910000001FFEFFE0000000000000001FFCFFE1D
:100920000000000000000003FF07FE0000000000C0
:10093000000003FC07FE0000000000000003F003BD
:10094000FE00000000000000018000FE000000002A
:100950000000000000007E00000000000000000019
:10096000003E000000000000000000000C0000003D
:10097000000000078000FC000003C00000000780AA
:1009800001FC000003C0000000078001FC00000320
:10099000C0000000078001E00000001E000000070A
:1009A0008001E00000001E007FE3F79FF9FDE7787B
:1009B0007BDFC0FFF7FFBFFDFDFF787BDFC0FFF7E8
:1009C000FFBFFDFDFF787BDFC0F0F787BC3DE1FF97
:1009D000787BDE00F0F787BC3DE1F0787BDE00003D
:1009E000F787803DE1E0787BDE007FF7879FFDE1C0
:1009F000E0787BDE00FFF787BFFDE1E0787BDE007B
:100A0000F0F787BC3DE1E0787BDE00F0F787BC3D86
:100A1000E1E0787BDE00F0F787BC3DE1E0787BDE4B
:100A200000FFF7FFBFFDE1E07FFBDFC0FFF7FFBF87
:100A3000FDE1E07FFBDFC07CF3F39F3DE1E03E7B27
:100A4000CFC00000000000000000000000FFFFFF1A
:100A5000FFFFFFFFFFFFFFC0FFFFFFFFFD68DB1190
:100A60001A31C0FFFFFFFFFD2B5AFB6AEFC0FFFFEB
:100A7000FFFFFD4B5B3B1A33C0FFFFFFFFFD6B5BCE
:100A8000DB6AFDC05276004677004F4646003E00C6
:100A90003E003E0043004300457874727564653A39
:100AA0002000457874727564652053706565643AFA
:100AB00020005365742054656D703A2000000000DA
:100AC00000240027002A0000000000250028002B39
:100AD00000000000080002010000030407000000FD
:100AE00000000000002200FF210001020408102085
:100AF00040800102040810200102040810200000B8
:100B00000000230026002900040404040404040453
:100B1000020202020202030303030303191A6624FA
:100B200011241FBECFEFD8E0DEBFCDBF12E0A0E0A2
:100B3000B1E0E0EBF1E502C005900D92AC30B107F9
:100B4000D9F724E0ACE0B2E001C01D92A732B207B1
:100B5000E1F715E0CFE8D5E004C02197FE010E943F
:100B6000CC24CE38D107C9F70E94E21B0C94CB28C5
:100B70000C9400000895833081F028F4813099F0BE
:100B80008230A9F008958730A9F08830C9F0843008
:100B9000B1F4809180008F7D03C0809180008F77B9
:100BA00080938000089584B58F7784BD089584B5BF
:100BB0008F7DFBCF8091B0008F778093B000089538
:100BC0008091B0008F7DF9CFCF93DF93282F30E055
:100BD000F901EF52F54F8491F901E651F54FD491A7
:100BE000F901E85FF44FC491CC23A1F081110E9478
:100BF000BB05EC2FF0E0EE0FFF1FE250F54FA59183
:100C0000B491EC91ED2381E090E009F480E0DF9174
:100C1000CF91089580E090E0FACF1F93CF93DF93B8
:100C2000282F30E0F901EF52F54F8491F901E65198
:100C3000F54FD491F901E85FF44FC491CC23A9F0AA
:100C4000162F81110E94BB05EC2FF0E0EE0FFF1F65
:100C5000E953F54FA591B4918FB7F894EC91111128
:100C600008C0D095DE23DC938FBFDF91CF911F9119
:100C70000895DE2BF8CFCF93DF9390E0FC01E6518F
:100C8000F54F2491885F944FFC0184918823D1F023
:100C900090E0880F991FFC01E354F54FA591B491A2
:100CA000FC01E953F54FC591D491623071F49FB7BF
:100CB000F8943C91822F809583238C93E8812E2B8E
:100CC00028839FBFDF91CF9108958FB7F894EC915F
:100CD0002E2B2C938FBFF6CF3FB7F8948091D6027E
:100CE0009091D702A091D802B091D90226B5A89BC5
:100CF00005C02F3F19F00196A11DB11D3FBFBA2FAE
:100D0000A92F982F8827BC01CD01620F711D811D6D
:100D1000911D42E0660F771F881F991F4A95D1F7F2
:100D200008958F929F92AF92BF92CF92DF92EF92EF
:100D3000FF924B015C010E946C066B017C010E94DA
:100D40006C066C197D098E099F09683E7340810508
:100D50009105A8F321E0821A9108A108B10888EE54
:100D6000C80E83E0D81EE11CF11C81149104A1047B
:100D7000B10429F7FF90EF90DF90CF90BF90AF9034
:100D80009F908F9008952FB7F8946091D202709140
:100D9000D3028091D4029091D5022FBF0895089577
:100DA00008950895AF92BF92CF92DF92EF92FF9293
:100DB0000F931F93CF93DF936C017B018B01040F83
:100DC000151FEB015E01AE18BF08C017D10759F01F
:100DD0006991D601ED91FC910190F081E02DC60161
:100DE0000995892B79F7C501DF91CF911F910F915B
:100DF000FF90EF90DF90CF90BF90AF900895FC01EF
:100E0000538D448D252F30E0842F90E0821B930B6F
:100E1000541710F0CF96089501970895FC01918D15
:100E2000828D981761F0A28DAE0FBF2FB11D5D9618
:100E30008C91928D9F5F9F73928F90E008958FEFBA
:100E40009FEF0895FC01918D828D981731F0828D6E
:100E5000E80FF11D858D90E008958FEF9FEF0895C5
:100E6000FC01918D228D892F90E0805C9F4F821B29
:100E700091098F73992708958EED92E00E943007B3
:100E800021E0892B09F420E0822F089580E090E092
:100E9000892B29F00E943C0781110C9400000895D1
:100EA000FC01A48DA80FB92FB11DA35ABF4F2C91DF
:100EB000848D90E001968F739927848FA689B789D6
:100EC0002C93A089B1898C91837080648C93938DCD
:100ED000848D981306C00288F389E02D80818F7D70
:100EE00080830895EF92FF920F931F93CF93DF9328
:100EF000EC0181E0888F9B8D8C8D98131AC0E88956
:100F0000F989808185FF15C09FB7F894EE89FF8924
:100F10006083E889F98980818370806480839FBFC2
:100F200081E090E0DF91CF911F910F91FF90EF90C2
:100F30000895F62E0B8D10E00F5F1F4F0F731127D2
:100F4000E02E8C8D8E110CC00FB607FCFACFE8890D
:100F5000F989808185FFF5CFCE010E945007F1CF3E
:100F6000EB8DEC0FFD2FF11DE35AFF4FF0829FB781
:100F7000F8940B8FEA89FB8980818062CFCFCF9371
:100F8000DF93EC01888D8823B9F0AA89BB89E889B1
:100F9000F9898C9185FD03C0808186FD0DC00FB657
:100FA00007FCF7CF8C9185FFF2CF808185FFEDCFD5
:100FB000CE010E945007E9CFDF91CF910895EF92C3
:100FC000FF920F931F93CF93DF93EC01EC80FD8092
:100FD0006E157F050CF070C057FF04C0240F351F3D
:100FE00050E040E08E819F81FA01E20FF31F8E17DF
:100FF0009F071CF49C01241B350B121613060CF0E2
:101000005BC0922F842F8695869586958E9DD00104
:101010008F9DB00D11246A0F7B1FAF8DB8A1A60F55
:10102000B71F477049F188E0841B482F682F70E094
:10103000FB01E653FA4FE491281708F063C0621BE6
:1010400071092FEF30E002C0359527956A95E2F7D8
:10105000E2230130110539F0B0F10230110561F5DC
:101060008C91E82702C08C91E82BEC93941720F127
:101070002C813D81A20FB31FE92FE41BE83078F0EB
:101080000230110521F58E2F9C9190959C932C8117
:101090003D81A20FB31F88508830B0F7E770EE2370
:1010A00059F0F0E0EE53FA4FE49101301105F9F0F8
:1010B00010F10230110519F1DF91CF911F910F91BD
:1010C000FF90EF900895E0958C91E823CECF81E0DA
:1010D0000115110509F480E081959E2F8C932C81D8
:1010E0003D81A20FB31F98509830C0F7D7CF8C9195
:1010F000E82BEC93E1CFE0958C91E823FACF8C912B
:10110000E827F7CF0130110509F4ADCFE0F2023046
:10111000110509F4A5CFAE0DBF1DAECF0F931F93E0
:10112000CF93DF9377FF04C0260F371F70E060E096
:10113000DC011496CD91DC91FB01E20FF31FCE1779
:10114000DF071CF49E01261B370B121613064CF505
:10115000FA0157FD3796A3E0F595E795AA95E1F7D3
:10116000EC9FD001ED9FB00DFC9FB00D11246A0FD4
:101170007B1FDC015F96ED91FC91E60FF71F477036
:10118000552781E090E001C0880F4A95EAF7482F83
:101190000130110559F0A8F02E0F3F1F0230110544
:1011A000E1F0DF91CF911F910F9108952E0F3F1F16
:1011B000E217F307B1F38191DF011197842B8C9330
:1011C000F7CF80952E0F3F1FE217F30751F3919150
:1011D000DF01119798239C93F7CFE217F30709F3E8
:1011E0008191DF01119784278C93F7CF0F931F9381
:1011F000FA01DC0156964C9156974230E9F04330A3
:10120000A1F1413061F514964D915C91DA01AE1B6C
:10121000BF0BFD01E21BF30B77FD0BC0DC01169643
:101220004D915C916417750724F4AB01BF010E94D6
:101230008E081F910F91089514964D915C91DA01DB
:10124000A61BB70BBD0161507109DC0116964D91CB
:101250005C91DA01AE1BBF0BFD01E21BF30B77FDC6
:10126000E8CFAF010E94DF07E4CF16964D915C9165
:10127000DA01A61BB70BBD0161507109CDCF0F93E9
:101280001F93FA01DC0156964C9156974230A9F013
:10129000433091F1413019F514964D915C91DA018A
:1012A000AE1BBF0BFD013197F7FD04C0AB01BF01C1
:1012B0000E94DF071F910F91089514964D915C9144
:1012C000DA01A61BB70BBD01DC0116964D915C91AE
:1012D000DA01AE1BBF0BFD013197621B730BF7FDEB
:1012E000E9CFDC0116964D915C91E417F50714F7F0
:1012F000AF010E948E08DECF16964D915C91DA0107
:10130000A61BB70BBD01621B730BCECFFC0177FD93
:1013100064C080859185681779070CF05EC057FD21
:101320005CC082859385481759070CF056C08689A2
:101330008230B1F0833029F1813041F4848195818C
:10134000841B950BAB01BC01615071092130310543
:1013500009F108F443C02230310509F463C008954F
:1013600084819581DC01A61BB70BBD016150710919
:1013700086819781DC01A41BB50BAD014150510959
:10138000E5CF86819781861B970BBA01AC0141504E
:101390005109DCCFCA0157FD0796A3E095958795C3
:1013A000AA95E1F7A481B5818A9F90018B9F300DAA
:1013B0009A9F300D1124620F731F078CF0A1E02D4E
:1013C000E60FF71F4770552721E030E001C0220FDC
:1013D0004A95EAF78081822B80830895CA0157FDE0
:1013E000079633E0959587953A95E1F7A481B58105
:1013F0008A9F90018B9F300D9A9F300D1124620FB0
:10140000731F078CF0A1E02DE60FF71F47705527DB
:1014100081E090E001C0880F4A95EAF780959081BD
:101420008923DACFCA0157FD079623E09595879562
:101430002A95E1F7A481B5818A9F90018B9F300D99
:101440009A9F300D1124620F731F078CF0A1E02DBD
:10145000E60FF71F4770552721E030E001C0220F4B
:101460004A95EAF780818227B7CF08958EBD0000A4
:101470000DB407FEFDCF8EB508958CBD9DBD0895BA
:101480000895FC016370668B848195812681378184
:10149000613039F0633029F0918780873387228764
:1014A0000895318720879387828708952F923F92EE
:1014B0004F925F926F927F928F929F92AF92BF9264
:1014C000CF92DF92EF92FF920F931F93CF93DF9310
:1014D000CDB7DEB76A970FB6F894DEBF0FBECDBFAB
:1014E0009A8F898F7A8369834A01D22E18870F8356
:1014F0003701BC2CDC0159962D913C915A9721154E
:10150000310509F015C118968D919C9119976817AE
:1015100079070CF0D7C11A968D919C9148175907FD
:101520000CF0D0C14C2C512CB6E0CB9E600D711D3F
:1015300011247C876B87161617060CF0C3C1EA2DA1
:10154000F0E0FA87E98793E0EE0FFF1F9A95E1F745
:10155000F88BEF87CF01840F951F181619060CF032
:10156000B1C1A98DBA8D58968C91811104C0BFEA82
:10157000BD1508F4D394A98DBA8DED91FC91119706
:101580000284F385E02DCD010995B5E0DB9EC00115
:101590001124E981FA81FC83EB83312C212C9C01FD
:1015A0002E533F4F388F2F8B4A2D50E05E8B4D8B43
:1015B000EF89F88DE20DF31D44919E828D82D12C2E
:1015C000C12C69817A81620D731D7A8B698B842F9E
:1015D00090E09C8B8B8BE98DFA8DA081B18140FFCF
:1015E00082C0F1E0BF126FC0AF126DC01C96ED91CA
:1015F000FC912F813885A4014C0D5D1D69897A8984
:10160000898D9A8D0995EB89FC89F595E7954E2F83
:101610005FEFC51AD50A6D817E818D899E89680F1D
:10162000791F7E836D8398E0C916D10481F6AFEFF0
:101630002A1A3A0AEB81FC81E40DF51DFC83EB8349
:10164000F5E02F16310409F0B3CF2F813885261528
:101650003705B9F0A98DBA8DED91FC91B1E0BB12BF
:1016600057C0AB1255C069817A816B5F7F4F00888C
:10167000F189E02D830128E030E0A401898D9A8D65
:101680000995A98DBA8DED91FC9111970688F7897E
:10169000E02DCD016A960FB6F894DEBF0FBECDBF28
:1016A000DF91CF911F910F91FF90EF90DF90CF903E
:1016B000BF90AF909F908F907F906F905F904F9072
:1016C0003F902F9009941E96ED91FC91EF80F88445
:1016D00009851A8592014D815E816B817C81898D9E
:1016E0009A8D099590CF2F8138852615370509F4F5
:1016F0008ACF31E0B31207C0A31205C01C96ED914A
:10170000FC91930178CF1E96ED91FC917301E0CF8F
:101710006B857C85641975090684F785E02D730156
:101720000F8518899201A401898D9A8D0995A9CFF9
:10173000F90134969491329745915491D91AB7E0B2
:10174000DB9E400D511D1124F901259134913C8BF4
:101750002B8BFA0125903490FA01329674903196D1
:101760003491398B329664903196449041E04C1517
:1017700018F04A1508F07FC0662D062C000C770B78
:101780007C836B83842D042C000C990B9E838D83AA
:10179000A98DBA8DED91FC9111970284F385E02D0E
:1017A000CD010995512CD12CC12CEA2DF0E0FA87FE
:1017B000E9872B2D30E03C872B87A401440D511D78
:1017C00047FC5A95588F4F8B69817A81660D711D40
:1017D00067FC7A957E876D877989C71608F051CFA7
:1017E0002C2D30E04D815E81420F531FA985BA85B3
:1017F0004A9FC0014B9F900D5A9F900D1124FC01F0
:10180000E80DF91DF88BEF87852D612C4F89588DD8
:10181000420F531F5E8B4D8B671408F050C0442459
:101820004394480E877041F4C1010196EB89FC890D
:10183000E20DF31DD4901C01D7FE19C0A98DBA8DFD
:10184000ED91FC91662D70E0B1E0BB1219C0AB12B6
:1018500017C02D853E85620F731F0484F585E02D2A
:101860002F8138854D895E89898D9A8D0995DD0C8A
:101870006394842DD1CF1E821D821C821B8288CF4F
:101880004B815C81640F751FAB85BC856A9FC0016D
:101890006B9F900D7A9F900D112469817A81680F5A
:1018A000791F0684F785E02DEF80F88409851A8575
:1018B0009D014F855889898D9A8D0995D8CF570CF0
:1018C000C3948ACF6A960FB6F894DEBF0FBECDBF21
:1018D000DF91CF911F910F91FF90EF90DF90CF900C
:1018E000BF90AF909F908F907F906F905F904F9040
:1018F0003F902F9008958F929F92AF92CF92EF9248
:10190000FF920F931F93CF93DF93EC01262F898DC6
:101910009A8D009709F051C06A30D1F41D861C865B
:101920008D8948E0849F900111248E859F85820FC8
:10193000931F9F878E8781E090E0DF91CF911F9169
:101940000F91FF90EF90CF90AF909F908F90089560
:101950006D3089F3CC88AD888F898823C1F08C8560
:101960009D8536E0C39E800D911D112448855985C3
:101970004817590764F44E855F851D861C8638E03C
:10198000A39EC0011124840F951F9F878E87EA882C
:10199000FB88088919894E855F856C857D85CE0118
:1019A0000E94560A2C898C859D8546E0249F800DD7
:1019B000911D11249D878C87BECF6A3069F41D86E6
:1019C0001C86FC013896E4912D898E859F85E29FC7
:1019D000800D911D1124ADCF6D3009F4ACCFFC0109
:1019E00034963491631708F4A6CF3296E491E61743
:1019F00008F4A1CFFC01329685909490462F431BAA
:101A0000342F47E0349F800C911C1124F40132964E
:101A100034913196E4913323A9F1EE2399F1CC88E6
:101A2000F4013596E491AD884F89442301F10E2EDF
:101A3000000CFF0BE30FF11DCE9EA001CF9E500DB9
:101A400011246C857D85460F571F6885798564173D
:101A500075076CF44E855F851D861C86FC013896E3
:101A6000E491AE9E400D511D11245F874E87EA8898
:101A7000FB88088919894E855F856C857D85CE0137
:101A80000E94560AF4013496E4912C898C859D8538
:101A9000E29F800D911D11248DCF0F931F93CF9343
:101AA000DF938C01D0E0C0E0F801EC0FFD1F6491E2
:101AB000662341F083EE93E00E947B0C892B11F0AA
:101AC0002196F2CFCE01DF91CF911F910F91089512
:101AD0006F927F928F929F92AF92BF92CF92DF923E
:101AE000EF92FF920F931F93CF93DF93EC016B0163
:101AF0005A0139014801E881F9810284F385E02D1A
:101B00000995E881F9810288F389E02D8701930125
:101B1000A501B601CE010995A501480D591D4150F9
:101B20005109E881F9810288F389E02D9301B6011A
:101B3000CE010995E881F9810088F189E02D9401B1
:101B4000A501B601CE010995C60CD71CB60161509E
:101B50007109E881F9810088F189E02D9401A501DE
:101B6000CE010995E881F9810688F789E02DCE013B
:101B7000DF91CF911F910F91FF90EF90DF90CF9069
:101B8000BF90AF909F908F907F906F9009946F92CD
:101B90007F928F929F92AF92BF92CF92DF92EF92FD
:101BA000FF920F931F93CF93DF935C01EB016A01C8
:101BB000490138018701DC01ED91FC91621773073F
:101BC00019F5641675062CF0962D872D3A01C92E4D
:101BD000D82E9601261937092F5F3F4F048CF58DBB
:101BE000E02DA301BE01C5010995DF91CF911F91A1
:101BF0000F91FF90EF90DF90CF90BF90AF909F90AC
:101C00008F907F906F9008954615570591F4261791
:101C1000370724F0892D4B01C22FD82F9E01281998
:101C200039092F5F3F4F068CF78DE02DA601B401D7
:101C3000DACF0284F385E02D0995D501ED91FC9171
:101C40000488F589E02D83019401A601BE01C50138
:101C50000995D501ED91FC910688F789E02DC50124
:101C6000DF91CF911F910F91FF90EF90DF90CF9078
:101C7000BF90AF909F908F907F906F900994EF925C
:101C8000FF920F931F93DC011A960D911C911B97E5
:101C900018962D913C911997ED91FC9100A0F1A11E
:101CA000E02D7B0150E040E070E060E009951F917D
:101CB0000F91FF90EF9008954F925F926F927F92F5
:101CC0008F929F92AF92BF92CF92DF92EF92FF924C
:101CD0000F931F93CF93DF936C012B015A013901AE
:101CE0004801DC01ED91FC910284F385E02D09951A
:101CF000E201640C751CD601ED91FC91C615D70567
:101D00005CF40088F189E02D87019401A501BE01F2
:101D1000C60109952196EFCF0688F789E02DC60107
:101D2000DF91CF911F910F91FF90EF90DF90CF90B7
:101D3000BF90AF909F908F907F906F905F904F90EB
:101D400009948F929F92AF92BF92CF92DF92EF92BF
:101D5000FF920F931F93CF93DF93EC015B014A0136
:101D60006901E881F9810284F385E02D09959501E7
:101D70002C0D3D1D21503109E881F9810488F58938
:101D8000E02D78018401A401B501CE010995E88117
:101D9000F9810688F789E02DCE01DF91CF911F915F
:101DA0000F91FF90EF90DF90CF90BF90AF909F90FA
:101DB0008F9009948F929F92AF92BF92CF92DF92B1
:101DC000EF92FF920F931F93CF93DF93EC015B0190
:101DD0004A0169017801E881F9810284F385E02DE7
:101DE0000995C80CD91C860101501109E881F981B7
:101DF0000488F589E02D9501A401B501CE0109956E
:101E0000E881F9810688F789E02DCE01DF91CF9135
:101E10001F910F91FF90EF90DF90CF90BF90AF9008
:101E20009F908F900994EF92FF920F931F93DC0184
:101E3000ED91FC9100A0F1A1E02D09951F910F916A
:101E4000FF90EF9008950F931F93DC01ED91FC91AB
:101E5000068CF78DE02D09951F910F9108950F9332
:101E60001F93DC01ED91FC91048CF58DE02D09951B
:101E70001F910F910895DC01ED91FC910084F18593
:101E8000E02D09943F924F925F926F927F928F92D2
:101E90009F92AF92BF92CF92DF92EF92FF920F93F9
:101EA0001F93CF93DF935C017B014A0169013901E4
:101EB00087E0680E711C93E0759467949A95E1F73A
:101EC0002B01400E511E10E000E0312CD0E0C0E0AC
:101ED000CE0187709927330C892B59F4FE0183E0DA
:101EE000F595E7958A95E1F7E00FF11FE80DF91DEB
:101EF000349037FE0AC021E030E0A701B5016C0F35
:101F00007D1F83EE93E00E943B0F2196CC16DD06E9
:101F1000F9F68FEFE81AF80A060D171DE414F50418
:101F2000A9F6DF91CF911F910F91FF90EF90DF9075
:101F3000CF90BF90AF909F908F907F906F905F9069
:101F40004F903F9008952F923F924F925F926F92E1
:101F50007F928F929F92AF92BF92CF92DF92EF9239
:101F6000FF920F931F93CF93DF9300D000D000D048
:101F7000CDB7DEB73C016A013E832D83FC82EB8244
:101F80005801A41AB50AB7FE03C0B194A194B108D0
:101F90008D809E80861A970A97FE03C09194819443
:101FA00091088A149B045CF0902F812F0D811E8173
:101FB0009D838E839C2D8D2D6B01692F782F0C15A1
:101FC0001D055CF09D818E817E836D83692F782F46
:101FD000902F812F8601C92ED82E1601201A310A82
:101FE0002B012D813E81421A530A57FE03C05194A2
:101FF00041945108710137FE03C03FEFE31AF30A21
:10200000F594E7948D819E81861797075CF5A1E092
:10201000B0E0BA83A983C016D1064CF1D301ED918B
:10202000FC910484F585E02D2B813C81A8016D8114
:102030007E818A149B041CF04D815E81B801C3012E
:102040000995E418F508F7FE0AC02D813E818981C3
:102050009A81280F391F3E832D83E20CF31C0F5FFA
:102060001F4FD9CF2FEF3FEF3A832983D4CF269646
:102070000FB6F894DEBF0FBECDBFDF91CF911F9199
:102080000F91FF90EF90DF90CF90BF90AF909F9017
:102090008F907F906F905F904F903F902F9008951A
:1020A000089520917202260F3327331F2132310504
:1020B000ECF420919602FC0190E080E0243069F07D
:1020C00082E00895A09172022191AC014E5A5D4FB9
:1020D000A40FB52FB11D2C930196861798F380910C
:1020E0007202680F6093720280E0089581E00895A3
:1020F0001092960281E0809398021092970261E01C
:1021000082E10E940D0661E083E10E940D06E9EB89
:10211000F0E080818E7F808380818D7F808388E462
:102120008093B80085E48093BC000895CF93DF933B
:1021300091E0909351028823B9F0C091B800D091FA
:10214000BA008091BC008A7B8093BC0060E082E191
:102150000E940D0660E083E10E940D060E94781047
:10216000D093BA00C093B800DF91CF910895E09169
:10217000C2028091C102E81730F4F0E0E45DFD4F47
:10218000808190E008958FEF9FEF08959091C202B3
:102190008091C1022FEF3FEF981748F4E92FF0E04C
:1021A000E45DFD4F208130E09F5F9093C202C90142
:1021B00008958091C1029091C202891B990B0895E4
:1021C000CF92DF92EF92FF920F931F93CF93DF9303
:1021D0007C01CB018A012091DD02222389F0EB01F1
:1021E0006B01C40ED51ECC15DD0569F06991D701D0
:1021F000ED91FC910190F081E02DC7010995F3CF9D
:10220000642F0E945110C801DF91CF911F910F914F
:10221000FF90EF90DF90CF900895CF93DF931F92C0
:10222000CDB7DEB769832091DD022223F9F020913A
:10223000DA02203258F021E030E0FC0133832283BF
:1022400090E080E00F90DF91CF9108958091DB02C4
:10225000E82FF0E0E45FFD4F998190838F5F8093DA
:10226000DB028093DA0281E090E0ECCF61E0CE0106
:1022700001960E945110F7CFCF92DF92EF92FF921A
:102280000F931F93CF93DF93D091DA0281E0D13285
:1022900008F09CC0C091DC020E946C066B017C01BE
:1022A0008091960281116CC082E08093960281E059
:1022B000809398028FEF809395021092BA02D09388
:1022C000B902ACE0B2E0E9E9F2E080E0D8138DC0F9
:1022D0001092BB028091BB02CC0FC82BC093BB02F3
:1022E00080919702813009F084C0109297020E9479
:1022F0006C066B017C018091BB028093BB008091D6
:102300004D0290914E02A0914F02B0915002892B44
:102310008A2B8B2BA1F00E946C0600914D0210912C
:102320004E0220914F02309150026C197D098E09A6
:102330009F09061717072807390708F442C080913C
:10234000BC0083FDD8CF85EC8093BC000E946C0656
:102350006B017C0180919602823009F44CC080911F
:1023600095028F3F09F469C080919502803209F48B
:1023700066C080919502803309F463C084E026C072
:1023800080914D0290914E02A0914F02B091500267
:10239000892B8A2B8B2B09F483CF0E946C0600912A
:1023A0004D0210914E0220914F02309150026C1953
:1023B0007D098E099F09061717072807390708F0B6
:1023C0006FCF80914C020E94961085E01092DB0244
:1023D0001092DA021092DD02DF91CF911F910F91DE
:1023E000FF90EF90DF90CF9008959D9191938F5F34
:1023F0006DCF85EEA9CF80914D0290914E02A091B4
:102400004F02B0915002892B8A2B8B2B09F4A2CF5B
:102410000E946C0600914D0210914E0220914F02D5
:10242000309150026C197D098E099F090617170714
:102430002807390708F08ECFC4CF80E0C7CF82E0ED
:10244000C5CF83E0C3CFEF92FF920F931F93CF933B
:10245000DF937C01C62F80910004909101040097C6
:1024600009F459C02091040431E03093DD02209337
:10247000DC021092DB021092DA02DC01ED91FC9199
:102480000190F081E02D60E009958701EE24E3944E
:10249000F12CD1E0C1508091000490910104CF3F14
:1024A00091F1B0E2EB16F104D8F00E943C1180915A
:1024B00000049091010420910404D093DD02209344
:1024C000DC021092DB021092DA02DC01ED91FC9149
:1024D0000190F081E02D60E00995EE24E394F12C69
:1024E0008091000490910104F8016491DC01ED9168
:1024F000FC910190F081E02D0995BFEFEB1AFB0AEA
:102500000F5F1F4FC7CFDF91CF911F910F91FF90AA
:10251000EF900C943C11E0911004F0911104908123
:10252000809116048095892380838701C15008F427
:1025300038C0F80184912091FE033091FF03232BD2
:1025400029F00E94360A0F5F1F4FF0CF28E030E0DD
:1025500040E8E0910C04F0910D0490911404582F80
:102560005423D9F05081952B9083E0910E04F09183
:102570000F04908150911504952B9083E0910E04E7
:10258000F0910F04508190911504909595239083BC
:10259000469521503109E9F6D6CF50819095952383
:1025A000E3CFDF91CF911F910F91FF90EF900895AE
:1025B0001F93CF93DF93EC018D8D9E8D009721F1BA
:1025C000162F29A131E03093DD022093DC02109216
:1025D000DB021092DA02DC01ED91FC910190F081B6
:1025E000E02D60E009958D8D9E8DDC01ED91FC91D3
:1025F0000190F081E02D612F09958D8D9E8DDF91E9
:10260000CF911F910C943C11ADA5BEA59C918BA9B7
:10261000809589238C938B8D9C8D892B31F0862F0F
:10262000DF91CF911F910C94360A28E030E080E8CA
:10263000A9A5BAA599A9462F4823C1F04C91942B7E
:102640009C93ABA5BCA59C914AA9942B9C93ABA54C
:10265000BCA54C919AA9909594239C938695215062
:10266000310931F7DF91CF911F9108954C919095E9
:102670009423E6CFDF92EF92FF920F931F93CF93B5
:10268000DF938091000490910104892B09F498C094
:10269000209118043091190440911A0450911B04A0
:1026A00060E074E284EF90E00E94942420513109AC
:1026B0004109510956954795379527952093B800BC
:1026C00065E085EE9AE00E9423126091E703615075
:1026D00083EE93E00E94D8122091E9033091EA033F
:1026E000C901079697FD079633E0959587953A952A
:1026F000E1F72091E7033091E803829F8001839FF7
:10270000100D929F100D1124C0910204D09103046A
:1027100080910004909101040C0F1D1F009709F493
:102720008FC02091040431E03093DD022093DC025D
:102730001092DB021092DA02DC01ED91FC91019023
:10274000F081E02D60E40995EE24E394F12CDD2482
:10275000D39480910004909101040C171D0709F493
:1027600046C0B0E2EB16F104D8F00E943C11809113
:1027700000049091010420910404D092DD02209382
:10278000DC021092DB021092DA02DC01ED91FC9186
:102790000190F081E02D60E40995EE24E394F12CA2
:1027A00080910004909101046991DC01ED91FC910C
:1027B0000190F081E02D0995BFEFEB1AFB0AC9CF1C
:1027C0008091FE039091FF03892B31F080912104C9
:1027D000909122040E943D0AE0911204F0911304AA
:1027E00090818091170480958923808369CF0E940E
:1027F0003C118091000490910104892B09F461C07F
:1028000020911C0430911D0440911E0450911F041E
:1028100060E074E284EF90E00E949424205131093A
:102820004109510956954795379527952093B8004A
:10283000DF91CF911F910F91FF90EF90DF9008955E
:10284000E0911004F0911104808190911604892B7D
:1028500080830C171D0769F289912091FE03309146
:10286000FF03232B19F00E94360AF3CF28E030E053
:1028700040E8E0910C04F0910D0490911404582F5D
:102880005423D9F05081952B9083E0910E04F09160
:102890000F04908150911504952B9083E0910E04C4
:1028A000F0910F0450819091150490959523908399
:1028B000469521503109E9F6CCCF5081909595236A
:1028C000E3CFE0911204F0911304808190911704FA
:1028D000892B8083ADCF1F93CF93DF93EC01162F0D
:1028E0008D8D9E8D892BB1F12DA93EA94FA958AD93
:1028F00060E074E284EF90E00E949424205131095A
:102900004109510956954795379527952093B80069
:1029100066EA111167EACE010E94D8128D8D9E8D54
:10292000892B41F129AD3AAD4BAD5CAD60E074E26D
:1029300084EF90E00E94942420513109410951090B
:1029400056954795379527952093B800DF91CF91FD
:102950001F9108958B8D9C8D892B21F08EAD9FAD9D
:102960000E943D0AEFA5F8A990818CA98095892342
:102970008083CECFEFA5F8A980819CA9892B808385
:10298000E5CF90E080E00895DC01ED91FD9180813C
:10299000ED91FD919081ED91FD916C9163708E238D
:1029A00009F064609F2309F06860E1EEF4E1E60F4E
:1029B000F11D659565956D936D917D918D919D91BD
:1029C000099423C01AC012C016C010C01EC009C08E
:1029D00014C013C006C019C009C00DC007C00DC087
:1029E00014C062507040804090400BC061507040F5
:1029F0008040904006C06E5F01C06F5F7F4F8F4F79
:102A00009F4F9E938E937E936E93089580917B0348
:102A100090917C030C94C41480917D0390917E036B
:102A20000C94C4142091E9033091EA03C90107967C
:102A300097FD079623E0959587952A95E1F72091D4
:102A4000E7033091E803829FA001839F500D929F7E
:102A5000500D112470E060E0809102049091030415
:102A60000C94C4280E94BF28FB0101900020E9F7C4
:102A70003197AF01461B570BDC01ED91FC910280B1
:102A8000F381E02D09948F929F92AF92BF92EF92C3
:102A9000FF920F931F93CF93DF93CDB7DEB7A1972C
:102AA0000FB6F894DEBF0FBECDBF7C01FA01CB019B
:102AB00019A2223008F42AE08E010F5D1F4F822EEA
:102AC000912CB12CA12CBF01A50194010E9494244A
:102AD000F901CA016A300CF5605DD8016E938D0171
:102AE000232B242B252B79F790E080E0109721F001
:102AF000BD01C7010E943415A1960FB6F894DEBF40
:102B00000FBECDBFDF91CF911F910F91FF90EF903E
:102B1000BF90AF909F908F900895695CDECFCF9269
:102B2000DF92EF92FF920F931F93CF93DF93EC010D
:102B30006A017B01E881F9810190F081E02D6DE26D
:102B400009958C0144275527BA014C195D096E0976
:102B50007F092AE0CE010E944315800F911FDF916B
:102B6000CF911F910F91FF90EF90DF90CF9008953C
:102B7000AB01770F660B770B77FD0C948F152AE06E
:102B80000C9443154F925F926F927F928F929F9217
:102B9000AF92BF92CF92DF92EF92FF920F931F936B
:102BA000CF936B017C01742EAC019B010E946027C6
:102BB00066E671E0811126C046015701E894B7F836
:102BC0002FEF3FEF4FE75FE7C501B4010E94602799
:102BD00081110CC02FEF3FEF4FE75FE7C501B40154
:102BE0000E943F256AE671E0181664F02FEF3FEF70
:102BF0004FE75FE4C701B6010E949E261816ACF4A9
:102C00006EE671E08EED92E0CF911F910F91FF90F3
:102C1000EF90DF90CF90BF90AF909F908F907F907C
:102C20006F905F904F900C9434152FEF3FEF4FE76C
:102C30005FECC701B6010E943F2587FDE1CF20E090
:102C400030E0A901C701B6010E943F2510E000E075
:102C500087FF0AC06DE28EED92E00E9472078C0140
:102C6000F7FAF094F7F8F094C0E060E070E080E0EC
:102C70009FE37C1641F020E030E040E251E40E9406
:102C80004425CF5FF6CFA70196010E94D3242B01E4
:102C90003C010E94BD254B015C012AE0BC01A4015E
:102CA0008EED92E00E9443157C01E00EF11ECC23D4
:102CB000D1F1C501B4010E94EC259B01AC01C30117
:102CC000B2010E94D2244B015C016EE28EED92E0D3
:102CD0000E947207E80EF91EC15028F120E030E092
:102CE00040E251E4C501B4010E94F3262B013C01EE
:102CF0000E94BD254B01B12CA12C2AE0B501A401F5
:102D00008EED92E00E944315E80EF91EC501B40154
:102D10000E94EC259B01AC01C301B2010E94D224A8
:102D20004B015C01D9CFC701CF911F910F91FF904B
:102D3000EF90DF90CF90BF90AF909F908F907F905B
:102D40006F905F904F900895CF93DF93AB01BC01DC
:102D500077FF10C08EED92E00E948F15EC0162E7C4
:102D600071E08EED92E00E9434158C0F9D1FDF9173
:102D7000CF9108952AE08EED92E00E944315EECFA8
:102D8000CF92DF92EF92FF92CF9381E080930B017D
:102D9000C5E0C12CD12C7601809183038E3008F0E0
:102DA0008E5020910B0190E4299F9001112487708F
:102DB000822B80937C0080917A00806480937A00DB
:102DC00080917A0086FDFCCF809178006091790037
:102DD000762F682F90E080E00E94EC259B01AC01EB
:102DE000C701B6010E94D3246B017C016AE070E048
:102DF00080E090E00E949106C15071F620E030E042
:102E000040EA50E4C701B6010E9444256B017C01F1
:102E100065E771E08EED92E00E94341542E0C70153
:102E2000B6010E94C21562E771E08EED92E00E9449
:102E30003415A701960160E070EC8FE794E40E94DE
:102E4000442520E030E040E85FE30E94D2246B019B
:102E50007C01609181037091820390E080E00E9488
:102E6000EC25A70196010E94F3266B017C016DE819
:102E700071E08EED92E00E94341542E0C701B60188
:102E80000E94C21562E771E08EED92E00E94341557
:102E900060917F037091800390E080E00E94EC25B8
:102EA0009B01AC01C701B6010E9444250E94AB26DC
:102EB0006B017C01609185037091860390E080E056
:102EC0000E94EC259B01AC01C701B6010E9444257C
:102ED0002FE03FEC4BE55BE30E94D3249B01AC0168
:102EE00060E070E080E89FE30E94442523E333E93B
:102EF00048E853E40E94D2246B017C0164EA71E04B
:102F00008EED92E00E94341542E0C701B6010E94A6
:102F1000C21561EB71E08EED92E00E94341562E71C
:102F200071E08EED92E00E94341520E030E040E246
:102F300051E4C701B6010E94F3260E94B625CB01D9
:102F4000CF91FF90EF90DF90CF90089585ED809323
:102F5000BC0080914D0290914E02A0914F02B09121
:102F600050020796A11DB11D23E0B695A795979530
:102F700087952A95D1F72091BC0024FD03C01092BB
:102F80009602089540914D0250914E0260914F0279
:102F900070915002452B462B472B69F30097A105F2
:102FA000B10541F025E32A95F1F700000197A10949
:102FB000B109E1CF80914C020C9496101F920F92B0
:102FC0000FB60F9211242F933F938F939F93AF933C
:102FD000BF938091D2029091D302A091D402B0917C
:102FE000D5023091D10223E0230F2D3758F50196F9
:102FF000A11DB11D2093D1028093D2029093D302E0
:10300000A093D402B093D5028091D6029091D702BA
:10301000A091D802B091D9020196A11DB11D809353
:10302000D6029093D702A093D802B093D902BF9151
:10303000AF919F918F913F912F910F900FBE0F9065
:103040001F90189526E8230F0296A11DB11DD2CF1F
:103050001F920F920FB60F9211242F933F934F930D
:103060005F936F937F938F939F93AF93BF93EF93F0
:10307000FF93E0910201F09103010995FF91EF9117
:10308000BF91AF919F918F917F916F915F914F9180
:103090003F912F910F900FBE0F901F9018951F9288
:1030A0000F920FB60F9211242F933F934F935F937C
:1030B0006F937F938F939F93AF93BF93EF93FF9300
:1030C000E0910001F09101010995FF91EF91BF910D
:1030D000AF919F918F917F916F915F914F913F91B0
:1030E0002F910F900FBE0F901F9018951F920F9267
:1030F0000FB60F9211242F933F934F935F936F93CB
:103100007F938F939F93AF93BF93EF93FF938EED36
:1031100092E00E945007FF91EF91BF91AF919F9174
:103120008F917F916F915F914F913F912F910F9070
:103130000FBE0F901F9018951F920F920FB60F920F
:1031400011242F938F939F93EF93FF93E091EE02BF
:10315000F091EF028081E091F402F091F50282FD9E
:103160001BC090818091F7028F5F8F732091F802CE
:10317000821741F0E091F702F0E0E252FD4F958FA7
:103180008093F702FF91EF919F918F912F910F9074
:103190000FBE0F901F9018958081F4CF1F920F9251
:1031A0000FB60F9211242F933F934F935F936F931A
:1031B0007F938F939F93AF93BF93EF93FF938091F0
:1031C000B900887F803609F44AC0F0F5883209F4E6
:1031D000A7C018F5803109F49BC0B8F4882309F41E
:1031E000F9C0883009F494C0FF91EF91BF91AF917D
:1031F0009F918F917F916F915F914F913F912F910F
:103200000F900FBE0F901F901895883109F488C059
:10321000803251F78093950214C0803409F49DC028
:1032200040F48033B9F38833F9F68093950285EC46
:10323000B0C0803509F485C0883509F496C088345B
:1032400099F60E94A617D0CF883909F48CC038F5BA
:10325000883729F050F4883611F0803729F683E05A
:10326000809396021092940257C0883809F47BC06C
:10327000803919F0803809F0B7CF809194028032FC
:1032800008F071C0E091940281E08E0F8093940267
:103290008091BB00F0E0EC58FD4F80833DC0803B47
:1032A00039F0E0F4803A09F479C0883A09F09CCF0B
:1032B00084E0809396021092730210927202E09161
:1032C000BF02F091C00209958091720281110FC076
:1032D00081E0809372021092520209C0803C09F48E
:1032E000A6CF883C09F4A3CF883B09F07DCFE091BD
:1032F000730281E08E0F80937302F0E0EE5AFD4F6F
:1033000080818093BB00909173028091720229C0EA
:103310008091BB028093BB0085EC8093BC0064CF9E
:103320009091BA028091B902981758F5E091BA02CB
:1033300081E08E0F8093BA02F0E0E756FD4F808166
:10334000E9CFE091BA0281E08E0F8093BA028091BA
:10335000BB00F0E0E756FD4F80839091BA02809168
:10336000B9029817C8F285E8D8CFE091BA0281E097
:103370008E0F8093BA028091BB00F0E0E756FD4FBC
:1033800080838091980281115CCF81E080939702C5
:1033900084EA8093BC001092960226CF85EC80933D
:1033A000BC001092960280919402803230F4E09139
:1033B0009402F0E0EC58FD4F10826091940270E0AE
:1033C000E091BD02F091BE0284E792E0099510926F
:1033D00094020ACF1092950234CF1F920F920FB62B
:1033E0000F9211242F933F934F935F936F937F938B
:1033F0008F939F93AF93BF93EF93FF9387E00E94C8
:10340000E40561E0892B09F060E087E00E940D0689
:10341000FF91EF91BF91AF919F918F917F916F91AC
:103420005F914F913F912F910F900FBE0F901F9082
:1034300018950F931F93CF93DF931092E102109290
:10344000E00288EE93E0A0E0B0E08093E202909387
:10345000E302A093E402B093E5022AE131E0309365
:10346000DF022093DE0225EC30E03093EB02209364
:10347000EA0224EC30E03093ED022093EC0220ECE1
:1034800030E03093EF022093EE0221EC30E03093F5
:10349000F1022093F00222EC30E03093F30220930B
:1034A000F20226EC30E03093F5022093F402109201
:1034B000F7021092F8021092F9021092FA0210929A
:1034C000DA031092D9038093DB039093DC03A0937B
:1034D000DD03B093DE038CE291E09093D8038093F8
:1034E000D7031092E6031092E50320E830E0309312
:1034F000E8032093E70380E490E09093EA0380934D
:10350000E9033093EC032093EB039093EE03809355
:10351000ED031092F9031092F0031092EF03109252
:10352000F2031092F10391E09093F8039093F70364
:103530002FEF3FEF3093F6032093F5033093F4031E
:103540002093F3039093FA031092FB031092FD0370
:103550001092FC032EE331E03093E4032093E30365
:103560001092FF031092FE0327ED33E03093010425
:103570002093000410920304109202048FEF8093B2
:103580000704809308048093090480930A048093BD
:103590000B0440E85AE166E070E040931804509351
:1035A000190460931A0470931B0440EA56E861E022
:1035B00070E040931C0450931D0460931E047093AC
:1035C0001F0480E5809321041092220423E933E054
:1035D0003093BA032093B90327E933E03093B8035B
:1035E0002093B7032CE031E03093BC032093BB035E
:1035F0001092D5031092CD031092CE031092CF03F8
:103600001092D00340E050E06FE773E44093D103A1
:103610005093D2036093D3037093D40344E650E0F5
:1036200060E070E04093C9035093CA036093CB03FA
:103630007093CC031092B4031092B30321E030E0F6
:103640003093B6032093B5039093D60380E090E0C7
:10365000A0EAB2E480939B0390939C03A0939D0304
:10366000B0939E0340E050E06CE072E440939F030F
:103670005093A0036093A1037093A2038093A303CC
:103680009093A403A093A503B093A6038093A703EC
:103690009093A803A093A903B093AA0380E090E0BD
:1036A000A0E6B0E48093AB039093AC03A093AD038A
:1036B000B093AE0380E090E0A8E4B4E48093AF035D
:1036C0009093B003A093B103B093B2030E94C306DA
:1036D0000091C9031091CA032091CB033091CC0310
:1036E000601B710B820B930B6093BD037093BE0341
:1036F0008093BF039093C00362E080E10E943B0689
:1037000062E081E10E943B06E8E1FBE0E491F0E049
:10371000EE0FFF1FE250F54FA591B491B0938803CF
:10372000A0938703EAEFFAE0449140938B03E9E129
:10373000FBE0E491F0E0EE0FFF1FE250F54FC59182
:10374000D491D0938A03C0938903EBEFFAE0E4911C
:10375000E0938C0310928E0310928F0310929003CB
:10376000109291032BE33FE1C9010197F1F79C917E
:10377000842F892391E009F490E08881E82309F0FF
:10378000926090938D03109292038EE090E090935C
:1037900084038093830382E390E09093800380937B
:1037A0007F038CE19CE0909386038093850386E3FE
:1037B00090E09093820380938103DF91CF911F91DA
:1037C0000F910895CF93DF93CDB7DEB72F970FB644
:1037D000F894DEBF0FBECDBF789484B5826084BDFF
:1037E00084B5816084BD85B5826085BD85B5816005
:1037F00085BD80916E00816080936E001092810083
:10380000809181008260809381008091810081603D
:1038100080938100809180008160809380008091FE
:10382000B10084608093B1008091B000816080938A
:10383000B00080917A00846080937A0080917A0051
:10384000826080937A0080917A00816080937A0010
:1038500080917A00806880937A001092C100E09194
:10386000EE02F091EF0282E08083E091EA02F091B3
:10387000EB021082E091EC02F091ED0280E1808396
:103880001092F602E091F202F091F30286E080835A
:10389000E091F002F091F102808180618083E091FB
:1038A000F002F091F102808188608083E091F00263
:1038B000F091F102808180688083E091F002F091C4
:1038C000F10280818F7D80838091020490910304B6
:1038D000892B11F52091E9033091EA03C90107967C
:1038E00097FD0796B3E095958795BA95E1F72091F6
:1038F000E7033091E803AC01429FC001439F900D64
:10390000529F900D11240E949A2790930304809354
:103910000204892B09F46AC20E9412152091E9035E
:103920003091EA038091E7039091E803B9012132D5
:1039300031050CF446C16054710977FF02C06F5F16
:103940007F4F759567958255910997FD019600E423
:1039500010E022E530E044EC57E0959587950E9411
:10396000420F82E08093050480910004909101044D
:10397000892B09F439C18CE3809304041092C202AC
:103980001092C1021092DB021092DA020E947810AB
:103990008FEC96E09093C0028093BF0280ED96E09A
:1039A0009093BE028093BD0280910B0487FD1EC0E0
:1039B00061E00E943B0661E080910B040E940D06CD
:1039C00061E070E080E090E00E94910660E080910C
:1039D0000B040E940D066AE070E080E090E00E9417
:1039E000910661E080910B040E940D068091000415
:1039F00090910104892B09F4B8C1209118043091E9
:103A0000190440911A0450911B0460E074E284EFA1
:103A100090E00E94942420513109410951095695A2
:103A20004795379527952093B80064E080EE95E0A0
:103A30000E9423126091E903615083EE93E00E949B
:103A4000D81264E08CED95E00E9423128091050469
:103A500060E1813009F064E183EE93E00E94D812C6
:103A600064E088ED95E00E9423128FE880932004A3
:103A70008091E7039091E8038038910509F08EC1A9
:103A80008091E9039091EA038034910509F09BC18C
:103A900080910504813009F07FC18FE98093200473
:103AA00092E199836AED83EE93E00E94D8126981D6
:103AB00083EE93E00E94D81261E883EE93E00E94C7
:103AC000D8126091200483EE93E00E94D81269ED31
:103AD00083EE93E00E94D8128091050462E2813067
:103AE00009F061EF83EE93E00E94D81266E082ED68
:103AF00095E00E9423128091000490910104892B8B
:103B000009F46AC120911C0430911D0440911E04E7
:103B100050911F0460E074E284EF90E00E949424CE
:103B200020513109410951095695479537952795F7
:103B30002093B8000E94121561E083E00E943B06CA
:103B40008091D5032091B9033091BA033A83298338
:103B500081115DC1D901CD90DD90ED90FC90C092B6
:103B6000C103D092C203E092C303F092C403E09178
:103B7000B703F091B80380819181A281B3818093D2
:103B8000C5039093C603A093C703B093C803809066
:103B9000D1039090D203A090D303B090D403A50199
:103BA0009401C701B6010E949E2618160CF01FC191
:103BB0008092C1039092C203A092C303B092C40347
:103BC00026C16052710977FF02C06F5F7F4F759504
:103BD00067958357910997FD019600E210E023E76E
:103BE00030E044EE55E0B9CE61E0809109040E94D6
:103BF0003B0661E080910A040E943B068091090423
:103C0000082E000C990BFC01E85FF44FE491F0E002
:103C1000EE0FFF1FE953F54F2591349130931104B6
:103C200020931004FC01E651F54FE491E093160453
:103C300080910A04082E000C990BFC01E85FF44FF8
:103C4000E491F0E0EE0FFF1FE953F54FA591B49119
:103C5000B0931304A0931204FC01E651F54FE491D4
:103C6000E09317048C91E82BEC938091FE039091E4
:103C7000FF03892B09F436C05FB75983F89480910C
:103C8000BC02811127C0E2E1FBE08491E4EFFAE09D
:103C90009491E82FF0E0EE0FFF1FE354F54FA5914C
:103CA000B491EC91E92321F461E08AE00E940D06D1
:103CB00061E08AE00E943B068CB580618CBD8CB5CA
:103CC00080648CBD61E08DE00E943B0661E08BE08A
:103CD0000E943B068091BC028F5F8093BC02898169
:103CE0008FBF62CE61E0809107040E943B0661E0D5
:103CF000809108040E943B0680910704082E000C66
:103D0000990BFC01E85FF44FE491F0E0EE0FFF1F28
:103D1000E953F54F2591349130930D0420930C0411
:103D2000FC01E651F54FE491E093140480910804FE
:103D3000082E000C990BFC01E85FF44FE491F0E0D1
:103D4000EE0FFF1FE953F54FA591B491B0930F0407
:103D5000A0930E04FC01E651F54FE491E0931504A5
:103D60008C91E095E823EC931FCE8091FE03909117
:103D7000FF03892B31F080912104909122040E944D
:103D80003D0AE0911204F091130490818091170490
:103D900080958923808349CE8FEC80CE8036910533
:103DA000A9F48091E9039091EA03409791F48091FE
:103DB0000504813031F480E180932004A2E0A983DE
:103DC00071CE8FEAF9CFB2E0B9836CCEE2E0E9833D
:103DD00069CEF2E0F98366CEE0911204F09113040B
:103DE000808190911704892B8083A4CEFFCF80908F
:103DF000CD039090CE03A090CF03B090D003A50147
:103E00009401C701B6010E943F2587FDD1CE81E014
:103E10008093D5031092CD031092CE031092CF035E
:103E20001092D003812C912C2FE7A22E23E4B22EE6
:103E30008092D1039092D203A092D303B092D40384
:103E4000E981FA81C080D180E280F380A5019401EC
:103E5000C701B6010E949E26181644F5A981BA81B1
:103E60008D929D92AD92BC9213978090C1039090D9
:103E7000C203A090C303B090C403C090D103D090FC
:103E8000D203E090D303F090D403A7019601C501BB
:103E9000B4010E949E261816CCF4C092C103D092A1
:103EA000C203E092C303F092C40320C020E030E0DC
:103EB000A901C701B6010E943F2587FFD6CFE9813E
:103EC000FA811082118212821382CFCFC090CD036B
:103ED000D090CE03E090CF03F090D003A7019601DD
:103EE000C501B4010E943F2587FDD7CF0E94C016AF
:103EF000BC01990F880B990B0E94EE2560939703E4
:103F0000709398038093990390939A0362E08FE0F3
:103F10000E943B0691E6292E312C0E94121581E069
:103F20008093F7038093F80321E030E03093F603A9
:103F30002093F5033093F4032093F30342E050E021
:103F40005093F0034093EF0384E190E09093F203E9
:103F50008093F10365EB71E083EE93E00E943415EA
:103F6000A2E0B0E0B093F003A093EF03EEE1F0E045
:103F7000F093F203E093F10382EB9AE00E944D0D7F
:103F800022E030E03093F0032093EF0348E250E06A
:103F90005093F2034093F10382EA9AE00E944D0DA0
:103FA00082E090E09093F0038093EF03A2E3B0E00F
:103FB000B093F203A093F10388E99AE00E944D0DBB
:103FC0003092F0032092EF03E4E1F0E0F093F2038B
:103FD000E093F103609197037091980380919903A6
:103FE00090919A030E94B62583EE93E00E94B81543
:103FF00086E99AE00E944D0D3092F0032092EF0383
:104000002EE130E03093F2032093F10360910C0134
:1040100070910D0180910E0190910F010E94B625C3
:1040200083EE93E00E94B81584E99AE00E944D0D5A
:104030003092F0032092EF0348E250E05093F203F5
:104040004093F103609105017091060183EE93E0C6
:104050000E94B8158091CD029091CE0281309105D9
:1040600089F18230910509F448C0892BD1F487E5A4
:1040700090E09093F0038093EF03AEE1B0E0B09353
:10408000F203A093F10382E99AE00E944D0D309271
:10409000F0032092EF03E2E3F0E0F093F203E09309
:1040A000F1038091CB029091CC02009709F440C0BB
:1040B0008130910509F4B1C2019609F03FC084E84E
:1040C0009AE038C027E530E03093F0032093EF0307
:1040D00048E250E05093F2034093F10380E99AE004
:1040E0000E944D0D3092F0032092EF0382E390E0A6
:1040F0009093F2038093F103D4CFA7E5B0E0B0939F
:10410000F003A093EF03E2E3F0E0F093F203E09317
:10411000F1038EE89AE00E944D0D3092F003209258
:10412000EF0322E330E03093F2032093F103B9CFA1
:104130008AE89AE00E944D0D0E943A138FE00E9497
:10414000E4058983809104014981481709F45EC020
:1041500050910A015D830E94C306C090C702D090AF
:10416000C802E090C902F090CA026C197D098E095C
:104170009F096A3071058105910508F447C089815E
:10418000811167C29D819923A1F164EC71E08EEDEC
:1041900092E00E9434158091CD029091CE0201965A
:1041A000833091050CF03CC29093CE028093CD02F7
:1041B0008091CD029091CE0297FF06C0A2E0B0E0C0
:1041C000B093CE02A093CD028091CD029091CE0209
:1041D000009709F02AC260910C0170910D01809145
:1041E0000E0190910F010E94B62570930801609313
:1041F00007010E94C3066093C7027093C8028093B0
:10420000C9029093CA0239813093040180910A0156
:10421000882309F450C042E350E05A834983C12CFB
:10422000D12C760180919203823008F055C2F89427
:1042300087E893E00E94C41480918E0390918F03CD
:10424000A0919003B09191037894C80ED91EEA1EF4
:10425000FB1E89819A8101979A838983892B11F7A3
:10426000C701B60122E830E040E050E00E9475242A
:10427000CA01B9010091C3021091C4022091C50284
:104280003091C60206171707280739070CF026C217
:104290006093C3027093C4028093C5029093C602D8
:1042A0000E94A416809107019091080101969093B5
:1042B0000801809307018091CD029091CE02813058
:1042C000910509F421C28230910509F475C2892B48
:1042D00091F46091070170910801072E000C880B82
:1042E000990B0E94EE2560930C0170930D01809351
:1042F0000E0190930F0180910A01811181C10E94EA
:10430000C016BC01990F880B990B0E94EE25609393
:104310009703709398038093990390939A038091E5
:10432000D503882309F427C10E94C30669837A83D1
:104330008B839C838091BD039091BE03A091BF03AA
:10434000B091C00349815A816B817C81481B590B14
:104350006A0B7B0B8091C9039091CA03A091CB0398
:10436000B091CC03481759076A077B0708F403C1CB
:10437000E091B703F091B803408051806280738070
:10438000E091BB03F091BC03A301920160817181B4
:10439000828193810E94D2246B017C012091C5030C
:1043A0003091C6034091C7035091C803C301B201C5
:1043B0000E94D2246D837E838F8398872091AB03E4
:1043C0003091AC034091AD035091AE03C701B601EB
:1043D0000E94F3262091C1033091C2034091C30390
:1043E0005091C4030E94D3244B015C018092C1030D
:1043F0009092C203A092C303B092C4032091D6034B
:10440000298721111CC02091A7033091A803409156
:10441000A9035091AA036D817E818F8198850E94A6
:10442000F3269B01AC01C501B4010E94D224609324
:10443000C1037093C2038093C3039093C40380911C
:10444000C1039091C203A091C303B091C4038A87B2
:104450009B87AC87BD870091D1031091D2039091C7
:10446000D3039F87A091D403AE879801492F5A2F79
:104470006A857B858C859D850E949E2618160CF08A
:10448000BBC1C801AF85BE858093C1039093C203B1
:10449000A093C303B093C403B985BB2309F4C7C178
:1044A0002091A7033091A8034091A9035091AA033A
:1044B000C701B6010E94F3266B017C012091AF0376
:1044C0003091B0034091B1035091B2036D817E8170
:1044D0008F8198850E94F3269B01AC016091C103F6
:1044E0007091C2038091C3039091C4030E94D224AF
:1044F000A70196010E94D3246B017C019B01AC01B2
:10450000B8018F859E850E943F2587FD15C00091CB
:10451000CD031091CE03E091CF03EF87F091D0034C
:10452000FE879801AF01B601C7010E943F2587FDB4
:1045300003C08601EF86FE86E091B903F091BA03CD
:10454000C801AF85BE8580839183A283B3834092E7
:10455000C5035092C6036092C7037092C8032981B5
:104560003A814B815C812093BD033093BE0340931D
:10457000BF035093C00360919303709194038091A3
:104580009503909196030E94B6256B017A83698307
:1045900061E083E00E943B0649815A81452B09F086
:1045A0004AC160E083E00E940D06809109018823E2
:1045B00039F110920901F894109280001092810054
:1045C0001092850010928400109285001092840051
:1045D0008091CF029091D0029093890080938800BF
:1045E000809181008860809381008091810081604A
:1045F0008093810080916F00826080936F00789437
:1046000080E090E0892B09F488CC0E943C07882345
:1046100009F480CC0E9400007DCC87E89AE08ACD26
:104620001092CE021092CD02C3CD8130910549F493
:1046300080910501909106019093080180930701F4
:10464000D8CD029709F0D5CD8091CB029091CC02C4
:10465000F3CFB981B13009F0CCCD0E94C3066C19FB
:104660007D098E099F09683B7B408105910508F40F
:10467000C0CDFD81F11126C0809181008B7F809398
:104680008100809181008D7F8093810080918100E5
:104690008E7F8093810080916F008D7F80936F006B
:1046A00069EC71E08EED92E00E94341560910A0190
:1046B00081E0682760930A0170E08EED92E00E942D
:1046C000B81597CD60ED71E08EED92E00E94341543
:1046D000298120930901EACFF894AECD60177107C4
:1046E000820793070CF0E7CD6093C3027093C40276
:1046F0008093C5029093C6020E94A4168091070180
:10470000909108010197D3CD809107019091080104
:104710008536910534F084E690E09093080180930B
:104720000701809107019091080197FF04C0109242
:10473000080110920701A0910701B091080128E635
:104740003BE00E94C52424E630E040E050E00E94B7
:104750007524205B3F4F4F4F5F4F220F331F441F85
:10476000551F60E074E284EF90E00E949424215091
:1047700031092035310568F03093D0022093CF0203
:1047800080910701909108019093060180930501A3
:10479000B2CDA0E5B0E0B093D002A093CF0265ED1A
:1047A00071E08EED92E00E94341562E771E08EEDCB
:1047B00092E00E943415E4CF8091070190910801A6
:1047C000823091057CF0E1E0F0E0F0930801E093A5
:1047D000070180910701909108019093CC0280938A
:1047E000CB0289CD8F3F9F4FA4F78FEF9FEF909320
:1047F000080180930701EDCF8090CD039090CE0308
:10480000A090CF03B090D003A50194016A857B8569
:104810008C859D850E943F2587FF3ECE8092C103F7
:104820009092C203A092C303B092C40335CEC12CB0
:10483000D12C760143CE89819A818F3F910511F465
:1048400061E0B0CEE4EDFAE0E491E33029F150F418
:10485000E130C1F0E230D9F0A981BA81A038B105C8
:104860007CF79FCEE73011F1E83041F1E430A1F759
:1048700080918000806280938000D0928B00C092F3
:104880008A0093CE84B5806884BDC7BC8ECE84B5C3
:10489000806284BDC8BC89CE80918000806880938E
:1048A0008000D0928900C09288007FCE8091B000B5
:1048B00080688093B000C092B30077CE8091B00042
:1048C00080628093B000C092B4006FCE8EE391E01E
:1048D0009093E4038093E303809102049091030496
:1048E000009711F00C9436280895052E97FB1EF4BE
:1048F00000940E948C2457FD07D00E94942407FC4A
:1049000003D04EF40C948C2450954095309521950D
:104910003F4F4F4F5F4F08959095809570956195EB
:104920007F4F8F4F9F4F0895A1E21A2EAA1BBB1BEA
:10493000FD010DC0AA1FBB1FEE1FFF1FA217B3076B
:10494000E407F50720F0A21BB30BE40BF50B661F81
:10495000771F881F991F1A9469F760957095809545
:1049600090959B01AC01BD01CF010895A29FB001BC
:10497000B39FC001A39F700D811D1124911DB29F93
:10498000700D811D1124911D08950E94B624B7FF5A
:104990000895821B930B0895EE0FFF1F0590F4916D
:1049A000E02D09945058BB27AA270E94EA240C94B2
:1049B00064260E94562638F00E945D2620F039F4C5
:1049C0009F3F19F426F40C9453260EF4E095E7FB70
:1049D0000C944D26E92F0E94752658F3BA176207EA
:1049E00073078407950720F079F4A6F50C949726B1
:1049F0000EF4E0950B2EBA2FA02D0B01B9019001FA
:104A00000C01CA01A0011124FF27591B99F0593F3D
:104A100050F4503E68F11A16F040A22F232F342F85
:104A20004427585FF3CF469537952795A795F040D3
:104A30005395C9F77EF41F16BA0B620B730B840BE8
:104A4000BAF09150A1F0FF0FBB1F661F771F881FA0
:104A5000C2F70EC0BA0F621F731F841F48F48795F8
:104A600077956795B795F7959E3F08F0B0CF9395EA
:104A7000880F08F09927EE0F9795879508950E9463
:104A8000292608F481E008950E9458250C94642694
:104A90000E945D2658F00E94562640F029F45F3FA0
:104AA00029F00C944D2651110C9498260C94532601
:104AB0000E94752668F39923B1F3552391F3951B52
:104AC000550BBB27AA2762177307840738F09F5F2F
:104AD0005F4F220F331F441FAA1FA9F335D00E2E9C
:104AE0003AF0E0E832D091505040E695001CCAF709
:104AF0002BD0FE2F29D0660F771F881FBB1F2617CC
:104B000037074807AB07B0E809F0BB0B802DBF01A2
:104B1000FF2793585F4F3AF09E3F510578F00C9471
:104B20004D260C9498265F3FE4F3983ED4F3869587
:104B300077956795B795F7959F5FC9F7880F911D92
:104B40009695879597F90895E1E0660F771F881F7E
:104B5000BB1F621773078407BA0720F0621B730B31
:104B6000840BBA0BEE1F88F7E09508950E94BD25CF
:104B70006894B1110C94982608950E947D2688F0BF
:104B80009F5798F0B92F9927B751B0F0E1F0660F11
:104B9000771F881F991F1AF0BA95C9F714C0B13052
:104BA00091F00E949726B1E008950C949726672F04
:104BB000782F8827B85F39F0B93FCCF38695779581
:104BC0006795B395D9F73EF490958095709561956A
:104BD0007F4F8F4F9F4F0895E89409C097FB3EF495
:104BE00090958095709561957F4F8F4F9F4F99233A
:104BF000A9F0F92F96E9BB279395F69587957795B8
:104C00006795B795F111F8CFFAF4BB0F11F460FF77
:104C10001BC06F5F7F4F8F4F9F4F16C0882311F0CF
:104C200096E911C0772321F09EE8872F762F05C0E3
:104C3000662371F096E8862F70E060E02AF09A957E
:104C4000660F771F881FDAF7880F9695879597F973
:104C50000895990F0008550FAA0BE0E8FEEF16160D
:104C60001706E807F907C0F012161306E407F50760
:104C700098F0621B730B840B950B39F40A2661F0D4
:104C8000232B242B252B21F408950A2609F4A14077
:104C9000A6958FEF811D811D089597F99F6780E884
:104CA00070E060E008959FEF80EC089500240A947E
:104CB0001616170618060906089500240A941216F7
:104CC0001306140605060895092E0394000C11F42A
:104CD000882352F0BB0F40F4BF2B11F460FF04C0D7
:104CE0006F5F7F4F8F4F9F4F089557FD9058440F30
:104CF000551F59F05F3F71F04795880F97FB991F3B
:104D000061F09F3F79F087950895121613061406F7
:104D1000551FF2CF4695F1DF08C016161706180684
:104D2000991FF1CF86957105610508940895E8945F
:104D3000BB2766277727CB0197F908950E9429267C
:104D400008F48FEF089516F00C9465270C94532601
:104D500068940C944D260E947D26A8F39923C1F3F4
:104D6000AEF3DF93CF931F930F93FF92C92FDD27ED
:104D700088232AF02197660F771F881FDAF720E033
:104D800030E040E85FEB9FE3883920F0803E38F068
:104D900021968F770E94D324E8E6F0E004C00E94B9
:104DA000D324E5E9F0E00E9473278B01BE01EC01FA
:104DB000FB2E6F5771097595771F880B990B0E9411
:104DC000EE2528E132E741E35FE30E940627AF2D9D
:104DD0009801AE01FF900F911F91CF91DF910E943A
:104DE000EA240C9464260E9406270C9464260E94F0
:104DF000562638F00E945D2620F0952311F00C9481
:104E00004D260C94532611240C9498260E94752646
:104E100070F3959FC1F3950F50E0551F629FF0010D
:104E2000729FBB27F00DB11D639FAA27F00DB11D26
:104E3000AA1F649F6627B00DA11D661F829F2227AF
:104E4000B00DA11D621F739FB00DA11D621F839F36
:104E5000A00D611D221F749F3327A00D611D231F0C
:104E6000849F600D211D822F762F6A2F11249F575A
:104E700050409AF0F1F088234AF0EE0FFF1FBB1F5D
:104E8000661F771F881F91505040A9F79E3F51051C
:104E900080F00C944D260C9498265F3FE4F3983EE6
:104EA000D4F3869577956795B795F795E7959F5FC6
:104EB000C1F7FE2B880F911D9695879597F9089558
:104EC0000E942926880B990B08959F3F31F091503D
:104ED00020F4879577956795B795880F911D9695DE
:104EE000879597F90895DF93CF931F930F93FF92C0
:104EF000EF92DF927B018C01689406C0DA2EEF01FD
:104F00000E940627FE01E894A591259135914591CF
:104F10005591A6F3EF010E94EA24FE019701A80132
:104F2000DA9469F7DF90EF90FF900F911F91CF9186
:104F3000DF9108950F931F93CF93DF9382309105F4
:104F400010F482E090E0E0912504F091260430E036
:104F500020E0B0E0A0E0309799F42115310509F484
:104F60004AC0281B390B24303105D8F58A819B8132
:104F70006115710589F1FB0193838283FE0111C0E4
:104F8000408151810281138148175907E0F0481789
:104F9000590799F4109761F012960C931297139693
:104FA0001C933296CF01DF91CF911F910F910895FD
:104FB0000093250410932604F4CF2115310551F0F8
:104FC0004217530738F0A901DB019A01BD01DF0147
:104FD000F801C1CFEF01F9CF909326048093250407
:104FE000CDCFFE01E20FF31F81939193225031093F
:104FF00039832883D7CF2091230430912404232B95
:1050000041F4209112013091130130932404209334
:10501000230420911001309111012115310541F433
:105020002DB73EB74091140150911501241B350B4B
:10503000E0912304F0912404E217F307A0F42E1B5F
:105040003F0B2817390778F0AC014E5F5F4F2417EC
:10505000350748F04E0F5F1F5093240440932304FC
:10506000819391939FCFF0E0E0E09CCFCF93DF93CB
:105070000097E9F0FC01329713821282A091250477
:10508000B0912604ED0130E020E01097A1F42081DA
:105090003181820F931F209123043091240428171B
:1050A000390709F061C0F0932404E0932304DF91F1
:1050B000CF910895EA01CE17DF07E8F54A815B81B9
:1050C0009E0141155105B1F7E901FB83EA8349913E
:1050D0005991C40FD51FEC17FD0761F480819181B0
:1050E0000296840F951FE9019983888382819381B9
:1050F0009B838A83F0E0E0E012968D919C91139758
:105100000097B9F52D913C911197CD010296820F30
:10511000931F20912304309124042817390739F66E
:10512000309751F51092260410922504B093240470
:10513000A0932304BCCFD383C28340815181840FC9
:10514000951FC817D90761F44E5F5F4F8881998119
:10515000480F591F518340838A819B8193838283A7
:105160002115310509F0B0CFF0932604E093250412
:105170009ECFFD01DC01C0CF13821282D7CF81E028
:1051800090E0F8940C94CB28DC0101C06D93415061
:105190005040E0F7089515E0CFE8D5E004C0FE01E7
:1051A0000E94CC242196C039D107C9F7F894FFCFCB
:1051B000D106D106010A00DC0001010100005C43B8
:1051C000000027048000000000007207D206FF06DE
:1051D000BF0730070E072207000000000D11E01086
:1051E000C114BA05D910C610B710000000007B0C1E
:1051F000D206C11450108609BA053B0F130F2F0FAA
:10520000230FA30FBA05410A6B14F6083F095C0E81
:105210003F0EC70D680D6E616E00696E66006F7699
:1052200066000D0A004176657261676520616E61F6
:105230006C6F672072656164696E672000546865F1
:10524000726D6973746F7220726573697374616EC5
:105250006365200054656D706572617475726520B8
:1052600000202A430043757272656E742054656D88
:10527000703A20005075736800736466736466004A
:1052800068676867005761726E696E673A204F43BE
:105290005231412076616C756520746F6F206C6FA0
:1052A000772E20436170706564206174206D696E93
:0C52B000696D756D2076616C75652E00CF
:00000001FF
